:100000000C945D000C947A000C947A000C947A00A5
:100010000C947A000C947A000C947A000C940703E8
:100020000C947A000C947A000C947A000C947A0068
:100030000C947A000C947A000C947A000C947A0058
:100040000C94CA030C947A000C947A000C947A00F5
:100050000C947A000C947A000C947A000C947A0038
:100060000C947A000C947A00000000080002010051
:100070000003040700000000000000000200000070
:1000800000250028002B0000000000240027002A83
:100090000004040404040404040202020202020331
:1000A000030303030301020408102040800102043B
:1000B0000810200102040810200011241FBECFEFF9
:1000C000D8E0DEBFCDBF11E0A0E0B1E0E6EDF9E0A1
:1000D00002C005900D92A230B107D9F721E0A2E04D
:1000E000B1E001C01D92AE31B207E1F70E941404E5
:1000F0000C94E9040C94000090E0FC01EB55FF4FD8
:1001000024918F569F4FFC018491882399F090E0B1
:10011000880F991FFC01E957FF4FA591B491FC018D
:10012000E358FF4F859194918FB7F894EC91E22BAF
:10013000EC938FBF08954F925F926F927F928F9250
:100140009F92AF92BF92CF92DF92EF92FF920F9366
:100150001F93CF938B0190910001891799F09F3FD6
:1001600009F484C0CF911F910F91FF90EF90DF9021
:10017000CF90BF90AF909F908F907F906F905F9047
:100180004F900895ECE7F0E0C491C7FDEBCF0E94DB
:100190007C00CC2319F0C23009F058C14801B12CC1
:1001A000A12C60E072E18AE790E0A50198010E942D
:1001B000BB0429013A017A01690121E0C21AD10880
:1001C000E108F1088FEFC816D104E104F10409F049
:1001D0000CF40FC160E472E48FE090E0A501980197
:1001E0000E94BB0469017A0181E0C81AD108E108C4
:1001F000F108C23009F0B2C082E02FEFC216D1047C
:10020000E104F10409F00CF49BC160E970ED83E0B6
:1002100090E0A50198010E94BB0469017A0181E088
:10022000C81AD108E108F10883E02FEFC216D10403
:10023000E104F10409F00CF483C168E478EE81E094
:1002400090E0A50198010E94BB0469017A0181E058
:10025000C81AD108E108F1082FEFC216D104E10451
:10026000F10411F00CF09DC084E06AC1809300019C
:10027000ECE7F0E0C491CF3F09F474CFC13031F125
:1002800040F0C23009F444C0C7FD6CCF0E947C002E
:1002900082CF14BC15BC94B5926094BD95B59160A5
:1002A00095BD282F30E0F901EF56FF4FE491F0E0C3
:1002B000EE0FFF1FE358FF4F45915491F901EB55A5
:1002C000FF4FE491E0931101C0E061CF10928000F4
:1002D000109281009091810098609093810090919C
:1002E0008100916090938100282F30E0F901EF5652
:1002F000FF4FE491F0E0EE0FFF1FE358FF4F4591F1
:100300005491F901EB55FF4FE491E09310013FCF79
:100310001092B0001092B1009091B0009260909352
:10032000B0009091B10091609093B100282F30E01F
:10033000F901EF56FF4FE491F0E0EE0FFF1FE35895
:10034000FF4F4591549150930F0140930E01F901D5
:10035000EB55FF4FE491E0930D0119CF8FEFC816D5
:10036000D104E104F10409F00CF46EC068E478EE05
:1003700081E090E0A50198010E94BB0469017A0127
:1003800081E0C81AD108E108F108CC2309F4DFC0E4
:100390008FEFC816D104E104F10411F00CF0E0C0B5
:1003A00063CF64E274EF80E090E0A50194010E94C5
:1003B000BB0469017A0181E0C81AD108E108F1089B
:1003C00085E02FEFC216D104E104F10409F008F42E
:1003D000B7C062E17AE780E090E0A50194010E9455
:1003E000BB0469017A0181E0C81AD108E108F1086B
:1003F000C8C081E0C111A4C095B5987F892B85BD87
:100400009801220F331FAAE0B0E00E94DA0428EE20
:1004100033E040E050E00E949904C13009F446C046
:10042000C23009F455C0C1119DCEC7BC20931A013A
:1004300030931B0140931C0150931D0180916E006D
:10044000826080936E008ECE82E0D4CFF12CE12CBE
:1004500060E072E18AE790E0A70198010E94BB0486
:10046000DA01C9010197A109B109009721E0A207AA
:10047000B1055CF46C0191E0C13011F6809181000E
:10048000887F892B80938100BBCF68E478EE81E080
:1004900090E0A70198010E94BB0469017A0181E004
:1004A000C81AD108E108F10893E0E6CFD09289009C
:1004B000C0928800209316013093170140931801D1
:1004C0005093190180916F00826080936F004ACE33
:1004D000C092B30020931201309313014093140192
:1004E00050931501809170008260809370003ACE25
:1004F000730162019AE0F594E794D794C7949A95B2
:10050000D1F721E0C21AD108E108F10885E074CFE3
:100510008FEFC816D104E104F10409F048F784E034
:100520006BCF730162018AE0F594E794D794C79486
:100530008A95D1F721E0C21AD108E108F10887E0D5
:100540009091B100987F892B8093B10059CF83E0BF
:100550002FEFC216D104E104F10409F00CF44CCFE2
:1005600062E17AE780E090E0A50194010E94BB047B
:1005700069017A0181E0C81AD108E108F108CC23A9
:1005800039F28FEFC816D104E104F10409F048F6FE
:1005900086E0D6CF3FB7F89480910701909108018B
:1005A000A0910901B0910A0126B5A89B05C02F3F73
:1005B00019F00196A11DB11D3FBFBA2FA92F982F89
:1005C0008827BC01CD01620F711D811D911D42E084
:1005D000660F771F881F991F4A95D1F70895CF920C
:1005E000DF92EF92FF920E94CA026B017C010E948F
:1005F000CA026C197D098E099F09683E7340810506
:100600009105A8F3FF90EF90DF90CF9008951F928F
:100610000F920FB60F9211242F933F938F939F93B6
:10062000AF93BF93EF93FF938091120190911301C9
:10063000A0911401B0911501892B8A2B8B2BB1F15C
:1006400090910D01E0910E01F0910F0180818927B9
:1006500080838091120190911301A0911401B091B7
:100660001501181619061A061B069CF48091120132
:1006700090911301A0911401B09115010197A10966
:10068000B1098093120190931301A0931401B093C8
:100690001501FF91EF91BF91AF919F918F913F9184
:1006A0002F910F900FBE0F901F9018958091000111
:1006B000ECE7F0E0E4919FEF90930001E13009F462
:1006C00031C068F1E23009F433C090E0FC01E85930
:1006D000FF4F2491FC01EB55FF4F3491FC01EF5685
:1006E000FF4FE491EE23A9F2222351F0233009F4C5
:1006F0003AC078F5213009F43CC0223009F43DC0FD
:10070000F0E0EE0FFF1FE358FF4FA591B4918FB7B4
:10071000F894EC9130953E233C938FBFBACF109262
:100720006E00D3CF90916F009D7F90936F00CDCFDF
:10073000909170009D7F9093700091E09093B00035
:100740009091B100987F94609093B1001092B300A3
:10075000BCCF2730A9F02830C9F0243089F6809129
:1007600080008F7D03C0809180008F778093800010
:10077000C7CF84B58F7784BDC3CF84B58F7DFBCFC2
:100780008091B0008F778093B000BACF8091B00095
:100790008F7DF9CF1F920F920FB60F9211242F93D6
:1007A0003F938F939F93AF93BF9380910301909159
:1007B0000401A0910501B09106013091020123E0EE
:1007C000230F2D3758F50196A11DB11D209302016D
:1007D0008093030190930401A0930501B093060157
:1007E0008091070190910801A0910901B0910A013F
:1007F0000196A11DB11D8093070190930801A0935C
:100800000901B0930A01BF91AF919F918F913F91E0
:100810002F910F900FBE0F901F90189526E8230F71
:100820000296A11DB11DD2CF789484B5826084BD9B
:1008300084B5816084BD85B5826085BD85B58160E4
:1008400085BD80916E00816080936E001092810062
:10085000809181008260809381008091810081601D
:1008600080938100809180008160809380008091DE
:10087000B10084608093B1008091B000816080936A
:10088000B00080917A00846080937A0080917A0031
:10089000826080937A0080917A00816080937A00F0
:1008A00080917A00806880937A001092C10083E082
:1008B0000E947C0006E910E088E0E82E87E0F82E30
:1008C00090E0C92E90E0D92E10930C0100930B01FB
:1008D000C0910B01D0910C01C83087E0D80764F4B7
:1008E000BE0183E00E949B000E94EF022196D093FC
:1008F0000C01C0930B01ECCFF0920C01E0920B01C4
:10090000C0910B01D0910C01C739D10564F0BE0133
:1009100083E00E949B000E94EF022197D0930C017C
:10092000C0930B01EDCFC114D10471F20E940000FD
:10093000CBCFA1E21A2EAA1BBB1BFD010DC0AA1F23
:10094000BB1FEE1FFF1FA217B307E407F50720F038
:10095000A21BB30BE40BF50B661F771F881F991FB3
:100960001A9469F760957095809590959B01AC01FC
:10097000BD01CF010895052E97FB1EF400940E943F
:10098000D20457FD07D00E94990407FC03D04EF40F
:100990000C94D20450954095309521953F4F4F4F80
:1009A0005F4F089590958095709561957F4F8F4F1B
:1009B0009F4F0895A29FB001B39FC001A39F700DE8
:1009C000811D1124911DB29F700D811D1124911D57
:0609D0000895F894FFCF2A
:0209D600FF0020
:00000001FF
