:100000000C945D000C947A000C947A000C947A00A5
:100010000C947A000C947A000C947A000C94A10051
:100020000C947A000C947A000C947A000C947A0068
:100030000C947A000C947A000C947A000C947A0058
:100040000C9464010C947A000C947A000C947A005D
:100050000C947A000C947A000C947A000C947A0038
:100060000C947A000C947A00000000080002010051
:100070000003040700000000000000000000000072
:10008000240027002A0001020408102040800102F9
:1000900004081020010204081020000000002500C0
:1000A00028002B00040404040404040402020202D5
:1000B0000202030303030303020011241FBECFEF58
:1000C000D8E0DEBFCDBF14E0A0E0B1E0E0E6F9E0AB
:1000D00002C005900D92AE32B107D9F724E0AEE22E
:1000E000B4E001C01D92A834B207E1F70E94AE014E
:1000F0000C94AE040C9400003FB7F8948091330444
:1001000090913404A0913504B091360426B5A89B93
:1001100005C02F3F19F00196A11DB11D3FBFBA2F99
:10012000A92F982F8827BC01CD01620F711D811D59
:10013000911D42E0660F771F881F991F4A95D1F7DE
:1001400008951F920F920FB60F9211242F933F9391
:100150008F939F93AF93BF93EF93FF9380913C0452
:1001600090913D04A0913E04B0913F04892B8A2BCD
:100170008B2BB1F190913704E0913804F091390460
:1001800080818927808380913C0490913D04A091D7
:100190003E04B0913F04181619061A061B069CF47B
:1001A00080913C0490913D04A0913E04B0913F04A5
:1001B0000197A109B10980933C0490933D04A09359
:1001C0003E04B0933F04FF91EF91BF91AF919F9197
:1001D0008F913F912F910F900FBE0F901F90189508
:1001E00080910001E8EBF0E0E4919FEF9093000133
:1001F000E13009F431C068F1E23009F433C090E035
:10020000FC01E859FF4F2491FC01EA57FF4F34915C
:10021000FC01EC55FF4FE491EE23A9F2222351F0AB
:10022000233009F43AC078F5213009F43CC022307B
:1002300009F43DC0F0E0EE0FFF1FE656FF4FA59119
:10024000B4918FB7F894EC9130953E233C938FBFD7
:10025000BACF10926E00D3CF90916F009D7F909394
:100260006F00CDCF909170009D7F9093700091E0D2
:100270009093B0009091B100987F94609093B100FA
:100280001092B300BCCF2730A9F02830C9F0243039
:1002900089F6809180008F7D03C0809180008F77E8
:1002A00080938000C7CF84B58F7784BDC3CF84B5DA
:1002B0008F7DFBCF8091B0008F778093B000BACF55
:1002C0008091B0008F7DF9CF1F920F920FB60F92E1
:1002D00011242F933F938F939F93AF93BF9380915C
:1002E0002F0490913004A0913104B09132043091E8
:1002F0002E0423E0230F2D3758F50196A11DB11DC3
:1003000020932E0480932F0490933004A093310403
:10031000B09332048091330490913404A091350459
:10032000B09136040196A11DB11D809333049093C2
:100330003404A0933504B0933604BF91AF919F91DC
:100340008F913F912F910F900FBE0F901F90189596
:1003500026E8230F0296A11DB11DD2CFCF93DF93C4
:10036000CDB7DEB729970FB6F894DEBF0FBECDBF6D
:10037000789484B5826084BD84B5816084BD85B580
:10038000826085BD85B5816085BD80916E0081608C
:1003900080936E0010928100809181008260809332
:1003A0008100809181008160809381008091800034
:1003B0008160809380008091B10084608093B1005F
:1003C0008091B00081608093B00080917A00846059
:1003D00080937A0080917A00826080937A00809185
:1003E0007A00816080937A0080917A00806880939F
:1003F0007A001092C10087E992E09A838983E1E054
:10040000F1E0F887EF83E981FA8101911191FA8394
:10041000E9832801012E000C66087708EF81F88532
:1004200021903190F887EF8380910001833041F56E
:10043000E8EBF0E0F491F987F985F7FF6EC00E94D0
:100440007C006B017C01411451046104710409F4C6
:1004500021C20E947C006C197D098E099F09683EAB
:1004600073408105910578F321E0421A5108610833
:10047000710888EEC80E83E0D81EE11CF11CE3CFA2
:100480008F3FE9F623E020930001E8EBF0E0F491E0
:10049000F987FF3FA1F2F13009F40EC128F1F230E3
:1004A00059F61092B0001092B1008091B0008260B5
:1004B0008093B0008091B10081608093B100E7EA41
:1004C000F0E08491E82FF0E0EE0FFF1FE656FF4FBB
:1004D000859194919093390480933804E9E8F0E091
:1004E00084918093370419C014BC15BC84B5826014
:1004F00084BD85B5816085BDE7EAF0E08491E82F91
:10050000F0E0EE0FFF1FE656FF4F85919491E9E86A
:10051000F0E0849180933B041986E9E8F0E044918F
:10052000E7EAF0E08491882399F090E0880F991F22
:10053000FC01E458FF4FA591B491FC01E656FF4F32
:10054000259134918FB7F8949C91492B4C938FBF90
:100550004101B12CA12C60E072E18AE790E0A50195
:1005600091010E9479042B833C834D835E83690152
:100570007A01F1E0CF1AD108E108F10889858D7F71
:1005800009F031C12FEFC216D104E104F10409F0E2
:100590000CF4FEC060E472E48FE090E0A5019101EC
:1005A0000E94790469017A0181E0C81AD108E10842
:1005B000F1089985923009F09EC082E0EFEFCE16E7
:1005C000D104E104F10409F00CF46FC060E970EDAE
:1005D00083E090E0A50191010E94790469017A010C
:1005E000F1E0CF1AD108E108F10883E02FEFC2163D
:1005F000D104E104F10409F00CF457C068E478EE8A
:1006000081E090E0A50191010E94790469017A01DD
:10061000F1E0CF1AD108E108F10884E02FEFC2160B
:10062000D104E104F10409F00CF43FC064E274EF7A
:1006300080E090E0A50194010E94790469017A01AB
:10064000F1E0CF1AD108E108F10885E0FFEFCF16FD
:10065000D104E104F10449F140F162E17AE780E07C
:1006600090E0A50194010E94790469017A0191E06A
:10067000C91AD108E108F10886E0EFEFCE16D104DF
:10068000E104F10491F088F0CB80DC80ED80FE8005
:100690008AE0F594E794D794C7948A95D1F7E1E07E
:1006A000CE1AD108E108F10887E09091B100987F57
:1006B000892B8093B10074C0109280001092810049
:1006C00080918100886080938100809181008160A9
:1006D00080938100E7EAF0E08491E82FF0E0EE0FEC
:1006E000FF1FE656FF4F85919491E9E8F0E0849171
:1006F00080933A0412CF8FEFC816D104E104F104BD
:1007000009F00CF46EC068E478EE81E090E0A50199
:1007100091010E94790469017A0191E0C91AD10816
:10072000E108F108E98584E0E11190CF8FEFC81668
:10073000D104E104F10409F014F483E02DC062E176
:100740007AE780E090E0A50194010E9479046901B4
:100750007A0181E0C81AD108E108F10884E09FEF2E
:10076000C916D104E104F104B9F0B0F0CB80DC800B
:10077000ED80FE809AE0F594E794D794C7949A951B
:10078000D1F791E0C91AD108E108F10885E004C069
:1007900081E0E985E11189CF95B5987F892B85BDE9
:1007A0002FEF3FEFA901411451046104710409F0D6
:1007B00042C0F985F13009F44BC0F23009F45AC057
:1007C000F1113DCEC7BC20934404309345044093BF
:1007D00046045093470480916E00826080936E00BF
:1007E0002ECE82E0D6CF91E0C114D104F1E0EF0625
:1007F000F10484F068E478EE81E090E0A5019101D5
:100800000E94790469017A0181E0C81AD108E108DF
:10081000F10893E0E985E13019F680918100887F45
:10082000892B809381002FEF3FEFA90141145104E0
:100830006104710469F09101220F331FD8010E94F5
:10084000980428EE33E040E050E00E945704B1CF16
:10085000D0928900C09288002093400430934104D4
:10086000409342045093430480916F0082608093D0
:100870006F00E5CDC092B30020933C0430933D045B
:1008800040933E0450933F048091700082608093B7
:100890007000D5CD89819A818D52944009F0B3CDF5
:1008A00080E090E0892BE1F30E940000F9CFA1E203
:1008B0001A2EAA1BBB1BFD010DC0AA1FBB1FEE1FDA
:1008C000FF1FA217B307E407F50720F0A21BB30B25
:1008D000E40BF50B661F771F881F991F1A9469F7A1
:1008E00060957095809590959B01AC01BD01CF01FD
:1008F0000895052E97FB1EF400940E94900457FD66
:1009000007D00E94570407FC03D04EF40C949004C7
:1009100050954095309521953F4F4F4F5F4F08952B
:1009200090958095709561957F4F8F4F9F4F08955B
:100930000E949F04B7FF0895821B930B0895A29F06
:10094000B001B39FC001A39F700D811D1124911DA3
:10095000B29F700D811D1124911D0895F894FFCF51
:10096000FF4A018801B801B8010000B801EE010B8F
:10097000020B0200000B024B02EE01EE010000B878
:10098000018801B80100004A018801B801B80100DE
:1009900000B801EE010B020B0200000B024B02EE4D
:1009A00001EE010000B8018801B80100004A018889
:1009B00001B801B8010000B8010B024B024B020064
:1009C000004B029302BA02BA02000093024B029358
:1009D00002B8010000B801EE010B020B0200004B4F
:1009E000029302B8010000B8010B02EE01EE010013
:1009F000000B02B801EE010000B801B801B801EE29
:100A0000010B020B0200000B024B02EE01EE010093
:100A100000B8018801B80100004A018801B801B896
:100A2000010000B801EE010B020B0200000B024BAB
:100A300002EE01EE010000B8018801B80100004A91
:100A4000018801B801B8010000B8010B024B024B4C
:100A50000200004B029302BA02BA02000093024B5A
:100A6000029302B8010000B801EE010B020B020074
:100A7000004B029302B8010000B8010B02EE01EE38
:100A80000100000B02B801EE01000093020000001B
:100A900000BA02000000009302930200001003005D
:100AA0000093024B02000000004B02000000000B0C
:100AB0000200000000EE010B020000EE010000B891
:100AC00001930200000000BA0200000000930293AC
:100AD0000200001003000093024B02000000004BD4
:100AE00002000000000B0200000000EE010B0200FB
:100AF00000EE010000B8017D007D00FA007D007D60
:100B0000007D007D00FA007D007D007D007D00FA03
:100B1000007D007D007D007D0077017D007D007DF2
:100B200000FA007D007D007D007D00FA007D007DE3
:100B3000007D007D00FA007D007D007D007D007756
:100B4000017D007D007D00FA007D007D007D007D3F
:100B500000FA007D007D007D007D00FA007D007DB3
:100B6000007D007D007D00FA007D007D007D00FAA3
:100B7000007D007D00FA007D00FA007D007D007D93
:100B800000FA007D007D007D007D0077017701FA8D
:100B9000007D007D007D00FA007D007D007D007DF0
:100BA00000FA007D007D007D007D0077017D007DE5
:100BB000007D00FA007D007D007D007D00FA007D53
:100BC000007D007D007D00FA007D007D007D007DC0
:100BD0000077017D007D007D00FA007D007D007DB5
:100BE000007D00FA007D007D007D007D00FA007D23
:100BF000007D007D007D007D00FA007D007D007D90
:100C000000FA007D007D00FA007D00FA007D007D85
:100C1000007D00FA007D007D007D007D007701777A
:100C200001FA007D007701FA007D0077017D007DEB
:100C3000007D007D007D007D007D007D007701FA54
:100C4000007D007701FA007D0077017D007D007D49
:100C5000007D007D00F401FA007D007701FA007D3F
:100C60000077017D007D007D007D007D007D007DA1
:100C7000007D007701FA007D007701FA007D0077A2
:0E0C8000017D007D007D007D007D00F40100FF
:00000001FF
