:100000000C945D000C947A000C947A000C947A00A5
:100010000C947A000C947A000C947A000C94A10051
:100020000C947A000C947A000C947A000C947A0068
:100030000C947A000C947A000C947A000C947A0058
:100040000C9464010C947A000C947A000C947A005D
:100050000C947A000C947A000C947A000C947A0038
:100060000C947A000C947A00000000080002010051
:100070000003040700000000000000000000000072
:10008000240027002A0001020408102040800102F9
:1000900004081020010204081020000000002500C0
:1000A00028002B00040404040404040402020202D5
:1000B0000202030303030303020011241FBECFEF58
:1000C000D8E0DEBFCDBF14E0A0E0B1E0EEE2FCE09E
:1000D00002C005900D92AA39B107D9F724E0AAE928
:1000E000B4E001C01D92A43BB207E1F70E94AE014B
:1000F0000C9415060C9400003FB7F89480919F046F
:100100009091A004A091A104B091A20426B5A89B4F
:1001100005C02F3F19F00196A11DB11D3FBFBA2F99
:10012000A92F982F8827BC01CD01620F711D811D59
:10013000911D42E0660F771F881F991F4A95D1F7DE
:1001400008951F920F920FB60F9211242F933F9391
:100150008F939F93AF93BF93EF93FF938091A804E6
:100160009091A904A091AA04B091AB04892B8A2B89
:100170008B2BB1F19091A304E091A404F091A5041C
:100180008081892780838091A8049091A904A091FF
:10019000AA04B091AB04181619061A061B069CF4A3
:1001A0008091A8049091A904A091AA04B091AB04F5
:1001B0000197A109B1098093A8049093A904A09381
:1001C000AA04B093AB04FF91EF91BF91AF919F91BF
:1001D0008F913F912F910F900FBE0F901F90189508
:1001E00080910001E8EBF0E0E4919FEF9093000133
:1001F000E13009F431C068F1E23009F433C090E035
:10020000FC01E859FF4F2491FC01EA57FF4F34915C
:10021000FC01EC55FF4FE491EE23A9F2222351F0AB
:10022000233009F43AC078F5213009F43CC022307B
:1002300009F43DC0F0E0EE0FFF1FE656FF4FA59119
:10024000B4918FB7F894EC9130953E233C938FBFD7
:10025000BACF10926E00D3CF90916F009D7F909394
:100260006F00CDCF909170009D7F9093700091E0D2
:100270009093B0009091B100987F94609093B100FA
:100280001092B300BCCF2730A9F02830C9F0243039
:1002900089F6809180008F7D03C0809180008F77E8
:1002A00080938000C7CF84B58F7784BDC3CF84B5DA
:1002B0008F7DFBCF8091B0008F778093B000BACF55
:1002C0008091B0008F7DF9CF1F920F920FB60F92E1
:1002D00011242F933F938F939F93AF93BF9380915C
:1002E0009B0490919C04A0919D04B0919E04309138
:1002F0009A0423E0230F2D3758F50196A11DB11D57
:1003000020939A0480939B0490939C04A0939D0453
:10031000B0939E0480919F049091A004A091A104A9
:10032000B091A2040196A11DB11D80939F049093EA
:10033000A004A093A104B093A204BF91AF919F9198
:100340008F913F912F910F900FBE0F901F90189596
:1003500026E8230F0296A11DB11DD2CFCF93DF93C4
:10036000CDB7DEB729970FB6F894DEBF0FBECDBF6D
:10037000789484B5826084BD84B5816084BD85B580
:10038000826085BD85B5816085BD80916E0081608C
:1003900080936E0010928100809181008260809332
:1003A0008100809181008160809381008091800034
:1003B0008160809380008091B10084608093B1005F
:1003C0008091B00081608093B00080917A00846059
:1003D00080937A0080917A00826080937A00809185
:1003E0007A00816080937A0080917A00806880939F
:1003F0007A001092C1002DEC32E03A83298381E02B
:1004000091E098878F83E981FA8161917191FA83F4
:10041000E9838CED95E00E9496058B01EF81F885CC
:1004200021903190F887EF83809100012B01770FA5
:10043000660877088330B1F5E8EBF0E0F491F987CE
:10044000F985F7FF7DC0C301B2010E949D042AE92E
:1004500039E949E95FE30E9401050E946C046B01E0
:100460007C010E947C004B015C01C114D104E104B9
:10047000F10409F421C20E947C00681979098A09F3
:100480009B09683E73408105910578F321E0C21A0B
:10049000D108E108F10838EE830E33E0931EA11C69
:1004A000B11CE3CF8F3F79F683E080930001E8EB46
:1004B000F0E0F491F987FF3F31F2F13009F40FC118
:1004C00030F1F23009F0BCCF1092B0001092B100C0
:1004D0008091B00082608093B0008091B100816013
:1004E0008093B100E7EAF0E08491E82FF0E0EE0FAE
:1004F000FF1FE656FF4F859194919093A50480933A
:10050000A404E9E8F0E084918093A30419C014BC2A
:1005100015BC84B5826084BD85B5816085BDE7EA80
:10052000F0E08491E82FF0E0EE0FFF1FE656FF4F5A
:1005300085919491E9E8F0E084918093A70419866D
:10054000E9E8F0E04491E7EAF0E08491882399F04B
:1005500090E0880F991FFC01E458FF4FA591B491DA
:10056000FC01E656FF4F259134918FB7F8949C918A
:10057000492B4C938FBF4101B12CA12C60E072E15B
:100580008AE790E0A50191010E94CC052B833C8372
:100590004D835E8369017A01F1E0CF1AD108E10849
:1005A000F10889858D7F09F030C12FEFC216D10483
:1005B000E104F10409F00CF4FDC060E472E48FE0A2
:1005C00090E0A50191010E94CC0569017A0181E0CA
:1005D000C81AD108E108F1089985923009F09EC047
:1005E00082E0EFEFCE16D104E104F10409F00CF43F
:1005F0006FC060E970ED83E090E0A50191010E9479
:10060000CC0569017A01F1E0CF1AD108E108F108BF
:1006100083E02FEFC216D104E104F10409F00CF4D9
:1006200057C068E478EE81E090E0A50191010E9456
:10063000CC0569017A01F1E0CF1AD108E108F1088F
:1006400084E02FEFC216D104E104F10409F00CF4A8
:100650003FC064E274EF80E090E0A50194010E9445
:10066000CC0569017A01E1E0CE1AD108E108F10870
:1006700085E0EFEFCE16D104E104F10449F140F139
:1006800062E17AE780E090E0A50194010E94CC0548
:1006900069017A0181E0C81AD108E108F10886E011
:1006A0009FEFC916D104E104F10491F088F0CB80EA
:1006B000DC80ED80FE808AE0F594E794D794C794BF
:1006C0008A95D1F7E1E0CE1AD108E108F10887E078
:1006D0009091B100987F892B8093B10073C01092E4
:1006E0008000109281008091810088608093810059
:1006F00080918100816080938100E7EAF0E084913D
:10070000E82FF0E0EE0FFF1FE656FF4F8591949122
:10071000E9E8F0E084918093A60412CF3FEFC3167E
:10072000D104E104F10409F00CF46DC068E478EE42
:1007300081E090E0A50191010E94CC0569017A0158
:1007400081E0C81AD108E108F108998584E0911187
:1007500090CF83E03FEFC316D104E104F10471F1BF
:100760006CF162E17AE780E090E0A50194010E94DB
:10077000CC0569017A01F1E0CF1AD108E108F1084E
:1007800084E02FEFC216D104E104F104B9F0B0F017
:10079000CB80DC80ED80FE809AE0F594E794D794DE
:1007A000C7949A95D1F791E0C91AD108E108F108E8
:1007B00085E004C081E0398531118ACF95B5987FF5
:1007C000892B85BD2FEF3FEFA9014114510461042E
:1007D000710409F042C0F985F13009F44BC0F230E0
:1007E00009F45AC0F1112FCEC7BC2093B004309346
:1007F000B1044093B2045093B30480916E008260C0
:1008000080936E0020CE82E0D6CF91E0C114D10457
:1008100081E0E806F10484F068E478EE81E090E09D
:10082000A50191010E94CC0569017A0191E0C91AE4
:10083000D108E108F10893E0E985E13019F68091EB
:100840008100887F892B809381002FEF3FEFA901E2
:10085000411451046104710469F09101220F331FA6
:10086000D8010E94EB0528EE33E040E050E00E9402
:10087000AA05B1CFD0928900C09288002093AC0421
:100880003093AD044093AE045093AF0480916F0059
:10089000826080936F00D7CDC092B3002093A804EC
:1008A0003093A9044093AA045093AB048091700044
:1008B000826080937000C7CD29E934E089819A81F4
:1008C0002817390709F09FCD00E010E00115110548
:1008D000E9F30E940000FACF0E94E00488F09F57DD
:1008E00098F0B92F9927B751B0F0E1F0660F771F54
:1008F000881F991F1AF0BA95C9F714C0B13091F04A
:100900000E94FA04B1E008950C94FA04672F782F3E
:100910008827B85F39F0B93FCCF38695779567950E
:10092000B395D9F73EF490958095709561957F4F7A
:100930008F4F9F4F0895E89409C097FB3EF4909520
:100940008095709561957F4F8F4F9F4F9923A9F0A8
:10095000F92F96E9BB279395F69587957795679537
:10096000B795F111F8CFFAF4BB0F11F460FF1BC07B
:100970006F5F7F4F8F4F9F4F16C0882311F096E90E
:1009800011C0772321F09EE8872F762F05C06623BC
:1009900071F096E8862F70E060E02AF09A95660F75
:1009A000771F881FDAF7880F9695879597F908952E
:1009B00057FD9058440F551F59F05F3F71F0479510
:1009C000880F97FB991F61F09F3F79F087950895F5
:1009D000121613061406551FF2CF4695F1DF08C014
:1009E000161617061806991FF1CF86957105610531
:1009F00008940895E894BB2766277727CB0197F9D9
:100A000008950E9414050C9485050E94770538F01E
:100A10000E947E0520F0952311F00C946E050C9435
:100A2000740511240C94FB040E94D80470F3959F64
:100A3000C1F3950F50E0551F629FF001729FBB27D5
:100A4000F00DB11D639FAA27F00DB11DAA1F649F71
:100A50006627B00DA11D661F829F2227B00DA11D24
:100A6000621F739FB00DA11D621F839FA00D611DAA
:100A7000221F749F3327A00D611D231F849F600DCB
:100A8000211D822F762F6A2F11249F5750409AF0F4
:100A9000F1F088234AF0EE0FFF1FBB1F661F771F80
:100AA000881F91505040A9F79E3F510580F00C944B
:100AB0006E050C94FB045F3FE4F3983ED4F38695F7
:100AC00077956795B795F795E7959F5FC1F7FE2BEB
:100AD000880F911D9695879597F9089597F99F67C7
:100AE00080E870E060E008959FEF80EC08950024B6
:100AF0000A941616170618060906089500240A9483
:100B000012161306140605060895092E0394000C08
:100B100011F4882352F0BB0F40F4BF2B11F460FF97
:100B200004C06F5F7F4F8F4F9F4F089597FB072E35
:100B300016F4009407D077FD09D00E94F20507FC57
:100B400005D03EF4909581959F4F089570956195DD
:100B50007F4F0895A1E21A2EAA1BBB1BFD010DC0F9
:100B6000AA1FBB1FEE1FFF1FA217B307E407F5075D
:100B700020F0A21BB30BE40BF50B661F771F881F39
:100B8000991F1A9469F760957095809590959B01CF
:100B9000AC01BD01CF010895052E97FB1EF4009412
:100BA0000E94E30557FD07D00E94AA0507FC03D069
:100BB0004EF40C94E30550954095309521953F4FA8
:100BC0004F4F5F4F089590958095709561957F4F39
:100BD0008F4F9F4F08950E940606B7FF0895821B0E
:100BE000930B0895AA1BBB1B51E107C0AA1FBB1F93
:100BF000A617B70710F0A61BB70B881F991F5A95A9
:100C0000A9F780959095BC01CD010895A29FB001F0
:100C1000B39FC001A39F700D811D1124911DB29F30
:0E0C2000700D811D1124911D0895F894FFCFD1
:100C2E00FF06015D014A015D018801B8018801B826
:100C3E0001D201EE010B025D0106015D014A018840
:100C4E00015D01B8018801D201B80172018801303D
:100C5E007530750601880172018801B801D201B89C
:100C6E0001D201EE012A024B028801060188015DC4
:100C7E0001B8018801D201B801EE01D2019F01B87D
:100C8E00013075B801B801D201B8013075B801D282
:100C9E0001B801B8014B020B02D201D201B801B862
:100CAE0001880188015D015D014A014A012601307A
:100CBE007588018801B801880130758801B80188EE
:100CCE000188010B02EE01B801B801880188015DAF
:100CDE00015D014A014A0126012601060130750611
:100CEE00014A018801D20106014A018801D201069A
:100CFE00014A018801D201D20106015D014A015D5E
:100D0E00018801B8018801B801D201EE010B025D24
:100D1E000106015D014A0188015D01B8018801D219
:100D2E0001B80172018801307506018801720188CF
:100D3E0001B801D201B801D201EE012A024B02889C
:100D4E0001060188017201B8018801D201B8010BB8
:100D5E0002D2019F01B801307530755D0188015DC9
:100D6E00014A015D014A015D0188015D015D01D20B
:100D7E0001D20130758801B80188017201880172B3
:100D8E00018801B801880188010B020B023075B889
:100D9E0001D201B8019F01B8019F01B801D201B87B
:100DAE0001B8014B020B02D201880188015D0130AE
:100DBE00754A015D018801D201B8014A015D011534
:100DCE00012601D201880188015D0130758801B8C4
:100DDE0001D201EE010B02B8015D012601D201B86C
:100DEE00015D012601060126014A015D010400068E
:100DFE000010000600100006001000060010000390
:100E0E000008000400040006001000060010000692
:100E1E00001000060010000400040004001000087A
:100E2E00000600100006001000060010000600105C
:100E3E000003000800040004000600100006001065
:100E4E000006001000060010000400040004000656
:100E5E000010000400040008000800060010000442
:100E6E00000200080008000800080008000800083A
:100E7E00000800080008000400040004000600102A
:100E8E000004000400080008000600100004000220
:100E9E000008000800080008000800080008000804
:100EAE0000080008000400040008000800080008FC
:100EBE0000080008000800080008000800080008E4
:100ECE0000020004000400060010000600100006D8
:100EDE0000100006001000030008000400040006C5
:100EEE00001000060010000600100006001000049E
:100EFE0000040004000400060010000600100006A6
:100F0E000010000600100003000800040004000694
:100F1E00001000060010000600100006001000046D
:100F2E000004000400080010000600100006001067
:100F3E000006001000060010000300080004000860
:100F4E000008000600100006001000060010000643
:100F5E00001000030008000400080008000600103E
:100F6E00000600100006001000060010000400032A
:100F7E00000800080008000400040008000800082B
:100F8E000008000800080008000800080008000813
:100F9E00000800040004000800080008000800080B
:100FAE0000080008000800040004000400060010F9
:0A0FBE00000400060010000200000D
:00000001FF
