:100000000C945E000C9486000C9486000C94860080
:100010000C9486000C9486000C9486000C94EE03DD
:100020000C9486000C9486000C9486000C94860038
:100030000C9486000C9486000C9486000C94860028
:100040000C94A2040C9486000C9470040C944A0442
:100050000C9486000C9486000C9486000C94860008
:100060000C9486000C948600000000080002010039
:100070000003040700000000000000000200000070
:1000800000250028002B0000000000240027002A83
:100090000004040404040404040202020202020331
:1000A000030303030301020408102040800102043B
:1000B00008102001020408102000A00611241FBE11
:1000C000CFEFD8E0DEBFCDBF11E0A0E0B1E0ECE2C1
:1000D000FEE002C005900D92A431B107D9F721E0EE
:1000E000A4E1B1E001C01D92AB3CB207E1F710E022
:1000F000CEE5D0E004C02197FE010E940E07CD3569
:10010000D107C9F70E94EC040C9414070C9400006A
:10011000E8EAF0E02491E4E9F0E08491882399F0A2
:1001200090E0880F991FFC01E957FF4FA591B4910A
:10013000FC01E358FF4F859194918FB7F894EC91AF
:10014000E22BEC938FBF08959091000189130DC0AD
:10015000ECE7F0E0E4919FEF90930001E13009F4C7
:1001600031C068F1E23009F433C090E0FC01E85995
:10017000FF4F2491FC01EB55FF4F3491FC01EF56EA
:10018000FF4FE491EE23D1F0222351F0233009F404
:100190003AC078F5213009F43CC0223009F43DC062
:1001A000F0E0EE0FFF1FE358FF4FA591B4918FB71A
:1001B000F894EC9130953E233C938FBF08951092B4
:1001C0006E00D3CF90916F009D7F90936F00CDCF45
:1001D000909170009D7F9093700091E09093B0009B
:1001E0009091B100987F94609093B1001092B30009
:1001F000BCCF2730A9F02830C9F0243089F680918F
:1002000080008F7D03C0809180008F778093800075
:10021000C7CF84B58F7784BDC3CF84B58F7DFBCF27
:100220008091B0008F778093B000BACF8091B000FA
:100230008F7DF9CFAF92BF92CF92DF92EF92FF9274
:100240000F931F93CF93DF936C017B018B01040FFE
:10025000151FEB015E01AE18BF08C017D10759F09A
:100260006991D601ED91FC910190F081E02DC601DC
:100270000995892B79F7C501DF91CF911F910F91D6
:10028000FF90EF90DF90CF90BF90AF900895FC016A
:10029000538D448D252F30E0842F90E0821B930BEB
:1002A000541710F0CF96089501970895FC01918D91
:1002B000828D981761F0A28DAE0FBF2FB11D5D9694
:1002C0008C91928D9F5F9F73928F90E008958FEF36
:1002D0009FEF0895FC01918D828D981731F0828DEA
:1002E000E80FF11D858D90E008958FEF9FEF089541
:1002F000FC01918D228D892F90E0805C9F4F821BA5
:1003000091098F73992708958DE191E00E947801FA
:1003100021E0892B09F420E0822F089580E090E00D
:10032000892B29F00E94840181110C94000008950A
:10033000FC01A48DA80FB92FB11DA35ABF4F2C915A
:10034000848D90E001968F739927848FA689B78951
:100350002C93A089B1898C91837080648C93938D48
:10036000848D981306C00288F389E02D80818F7DEB
:1003700080830895EF92FF920F931F93CF93DF93A3
:10038000EC0181E0888F9B8D8C8D98131AC0E889D1
:10039000F989808185FF15C09FB7F894EE89FF89A0
:1003A0006083E889F98980818370806480839FBF3E
:1003B00081E090E0DF91CF911F910F91FF90EF903E
:1003C0000895F62E0B8D10E00F5F1F4F0F7311274E
:1003D000E02E8C8D8E110CC00FB607FCFACFE88989
:1003E000F989808185FFF5CFCE010E949801F1CF78
:1003F000EB8DEC0FFD2FF11DE35AFF4FF0829FB7FD
:10040000F8940B8FEA89FB8980818062CFCFCF93EC
:10041000DF93EC01888D8823B9F0AA89BB89E8892C
:10042000F9898C9185FD03C0808186FD0DC00FB6D2
:1004300007FCF7CF8C9185FFF2CF808185FFEDCF50
:10044000CE010E949801E9CFDF91CF9108953FB787
:10045000F8948091190190911A01A0911B01B0911B
:100460001C0126B5A89B05C02F3F19F00196A11DC0
:10047000B11D3FBFBA2FA92F982F8827BC01CD01EE
:10048000620F711D811D911D42E0660F771F881F4D
:10049000991F4A95D1F708958F929F92AF92BF927C
:1004A000CF92DF92EF92FF926B017C010E942702B4
:1004B0004B015C01C114D104E104F104B9F00E94C4
:1004C0002702681979098A099B09683E73408105EA
:1004D000910580F321E0C21AD108E108F10888EE05
:1004E000880E83E0981EA11CB11CE4CFFF90EF9012
:1004F000DF90CF90BF90AF909F908F900895CF9254
:10050000DF92EF92FF92CF936C01809100018330D4
:1005100069F08F3FC9F060EF70E080E090E0CF912C
:10052000FF90EF90DF90CF900C944C02ECE7F0E05E
:10053000C491C7FDF0CF0E948800CC2309F427C1E5
:10054000C23009F0AAC0FAC083E080930001ECE752
:10055000F0E0C491CF3FF9F2C13009F47FC040F020
:10056000C23009F4C8C0C7FDD6CF0E948800E8CFCA
:1005700014BC15BC84B5826084BD85B5816085BD21
:10058000E4E9F0E0E491F0E0EE0FFF1FE358FF4FE5
:1005900085919491E8EAF0E0E491E093BE010E9435
:1005A00088000D2C000CEE08FF08C0E068E478EE2F
:1005B00081E090E0A70196010E94CD06BA01A90151
:1005C0004150510961097109CC2309F4FAC0C230C4
:1005D00009F0E2C04F3F51056105710509F00CF4C7
:1005E000F9C064E274EF80E090E0A70196010E94F8
:1005F000CD06BA01A901415051096109710985E08F
:100600004F3F51056105710509F008F4B2C062E180
:100610007AE780E090E0A70196010E94CD06BA013A
:10062000A9014150510961097109C111D5C094E076
:1006300085B5887F892B85BD47BD8FEF9FEFDC0196
:100640008093C7019093C801A093C901B093CA01D8
:1006500080916E00826080936E005DCF109280006A
:100660001092810080918100886080938100809148
:100670008100816080938100E4E9F0E0E491F0E0A2
:10068000EE0FFF1FE358FF4F85919491E8EAF0E0E9
:10069000E491E093BD010E9488009601DD0C440BBB
:1006A000550B60E072E18AE790E00E94CD06BA0146
:1006B000A9014150510961097109C13009F05FC0B8
:1006C00080918100887F81608093810050938900B0
:1006D000409388008FEF9FEFDC018093C3019093DC
:1006E000C401A093C501B093C60180916F008260E0
:1006F00080936F0010CF1092B0001092B1008091E3
:10070000B00082608093B0008091B10081608093DE
:10071000B100E4E9F0E0E491F0E0EE0FFF1FE358F0
:10072000FF4F859194919093BC018093BB01E8EABF
:10073000F0E0E491E093BA010E9488000D2C000CD7
:10074000EE08FF0860E970ED83E090E0A7019601F4
:100750000E94CD06BA01A9014150510961097109F0
:10076000C2E083E04F3F51056105710511F00CF0C7
:100770001DCF9091B100987F892B8093B100C1303B
:1007800009F4A4CFC23051F0C111C5CE55CF0D2C04
:10079000000CEE08FF080ACF84E032CF4093B3008C
:1007A0008FEF9FEFDC018093BF019093C001A09376
:1007B000C101B093C201809170008260809370008B
:1007C000AACE93E04F3F51056105710511F00CF081
:1007D0001ECF2ECF84E0CDCF86E0CBCF1F920F92DD
:1007E0000FB60F9211242F933F934F935F936F9304
:1007F0007F938F939F93AF93BF93EF93FF938091DA
:10080000BF019091C001A091C101B091C201892B9B
:100810008A2B8B2BD1F19091BA01E091BB01F09121
:10082000BC018081892780838091BF019091C001A4
:10083000A091C101B091C201181619061A061B0633
:100840009CF48091BF019091C001A091C101B09131
:10085000C2010197A109B1098093BF019093C00122
:10086000A093C101B093C201FF91EF91BF91AF91ED
:100870009F918F917F916F915F914F913F912F91B8
:100880000F900FBE0F901F901895809100010E944D
:10089000A400EACF1F920F920FB60F9211242F934C
:1008A0003F934F935F936F937F938F939F93AF93F8
:1008B000BF93EF93FF938DE191E00E949801FF9128
:1008C000EF91BF91AF919F918F917F916F915F91C8
:1008D0004F913F912F910F900FBE0F901F90189541
:1008E0001F920F920FB60F9211242F938F939F9305
:1008F000EF93FF93E0912D01F0912E018081E09123
:100900003301F091340182FD1BC09081809136014A
:100910008F5F8F7320913701821741F0E09136018C
:10092000F0E0E35EFE4F958F80933601FF91EF91EB
:100930009F918F912F910F900FBE0F901F90189540
:100940008081F4CF1F920F920FB60F9211242F9334
:100950003F938F939F93AF93BF9380911501909195
:100960001601A0911701B09118013091140123E0F4
:10097000230F2D3758F50196A11DB11D20931401A9
:100980008093150190931601A0931701B09318015D
:100990008091190190911A01A0911B01B0911C0145
:1009A0000196A11DB11D8093190190931A01A09386
:1009B0001B01B0931C01BF91AF919F918F913F910B
:1009C0002F910F900FBE0F901F90189526E8230FC0
:1009D0000296A11DB11DD2CF789484B5826084BDEA
:1009E00084B5816084BD85B5826085BD85B5816033
:1009F00085BD80916E00816080936E0010928100B1
:100A0000809181008260809381008091810081606B
:100A1000809381008091800081608093800080912C
:100A2000B10084608093B1008091B00081608093B8
:100A3000B00080917A00846080937A0080917A007F
:100A4000826080937A0080917A00816080937A003E
:100A500080917A00806880937A001092C1000E9491
:100A60008800E0912D01F0912E0182E08083E091D9
:100A70002901F0912A011082E0912B01F0912C01C3
:100A80008FEC808310923501E0913101F0913201B9
:100A900086E08083E0912F01F091300180818061B8
:100AA0008083E0912F01F091300180818860808304
:100AB000E0912F01F0913001808180688083E09186
:100AC0002F01F091300180818F7D8083C0E0D0E0E4
:100AD00087E295E00E947F028DED94E00E947F0204
:100AE00087E295E00E947F028DED94E00E947F02F4
:100AF00087E295E00E947F028CED93E00E947F02E6
:100B000087E994E00E947F0287E194E00E947F02DF
:100B10008CED90E00E947F028AE491E00E947F02C7
:100B200088EB91E00E947F028BE092E00E947F02BE
:100B300083E992E00E947F0280E793E00E947F02B7
:100B400085EA90E00E947F028AE491E00E947F02A1
:100B50008FE991E00E947F0283E992E00E947F0288
:100B60008FE393E00E947F028CED93E00E947F026E
:100B70008CED90E00E947F028AE491E00E947F0267
:100B800088EB91E00E947F0283E992E00E947F025D
:100B900087E295E00E947F028DED94E00E947F0243
:100BA00087E295E00E947F028DED94E00E947F0233
:100BB00087E295E00E947F028CED93E00E947F0225
:100BC00087E994E00E947F0287E194E00E947F021F
:100BD0008CED90E00E947F028AE491E00E947F0207
:100BE00088EB91E00E947F028BE092E00E947F02FE
:100BF00083E992E00E947F0280E793E00E947F02F7
:100C000085EA90E00E947F028AE491E00E947F02E0
:100C10008FE991E00E947F0283E992E00E947F02C7
:100C20008FE393E00E947F028CED93E00E947F02AD
:100C30008CED90E00E947F028AE491E00E947F02A6
:100C400088EB91E00E947F0283E992E00E947F029C
:100C500087E194E00E947F0287E994E00E947F028E
:100C600086E091E00E947F0288E891E00E947F0286
:100C70008BE092E00E947F0280E193E00E947F027D
:100C800085E795E00E947F0287E295E00E947F025F
:100C900084EC90E00E947F0288E891E00E947F024D
:100CA0008EEE91E00E947F028AEB92E00E947F022A
:100CB00087E295E00E947F0287E994E00E947F022C
:100CC0008CED90E00E947F028AE491E00E947F0216
:100CD00088EB91E00E947F0283E992E00E947F020C
:100CE00087E994E00E947F0287E194E00E947F02FE
:100CF00085EA90E00E947F028AE491E00E947F02F0
:100D000080E793E00E947F0283E00E94A40060EFEE
:100D100070E080E090E00E944C0283E00E94A4001A
:100D200060E070E0CB010E944C02209709F4D0CE25
:100D30000E948401882309F4CBCE0E940000C8CE13
:100D4000EDE1F1E01382128288EE93E0A0E0B0E0E2
:100D500084839583A683B78385E091E09183808324
:100D600085EC90E09587848784EC90E09787868770
:100D700080EC90E0918B808B81EC90E0938B828B68
:100D800082EC90E0958B848B86EC90E0978B868B41
:100D9000118E128E138E148E0895052E97FB1EF45D
:100DA00000940E94E40657FD07D00E94EC0607FC61
:100DB00003D04EF40C94E40650954095309521955F
:100DC0003F4F4F4F5F4F0895909580957095619577
:100DD0007F4F8F4F9F4F0895A1E21A2EAA1BBB1B76
:100DE000FD010DC0AA1FBB1FEE1FFF1FA217B307F7
:100DF000E407F50720F0A21BB30BE40BF50B661F0D
:100E0000771F881F991F1A9469F7609570958095D0
:100E100090959B01AC01BD01CF010895EE0FFF1F1E
:0C0E20000590F491E02D0994F894FFCFA8
:100E2C00FF00000000BA011A0147010702780156C1
:040E3C00016A010046
:00000001FF
