:100000000C945E000C9486000C9486000C94860080
:100010000C9486000C9486000C9486000C942301AA
:100020000C9486000C9486000C9486000C94860038
:100030000C9486000C9486000C9486000C94860028
:100040000C947F010C9486000C9486000C9486001E
:100050000C9486000C9486000C9486000C94860008
:100060000C9486000C948600000000080002010039
:100070000003040700000000000000000200000070
:1000800000250028002B0000000000240027002A83
:100090000004040404040404040202020202020331
:1000A000030303030301020408102040800102043B
:1000B00008102001020408102000AD0411241FBE06
:1000C000CFEFD8E0DEBFCDBF13E0A0E0B1E0E0EEBF
:1000D000FCE002C005900D92AE3BB107D9F723E0DA
:1000E000AEEBB3E001C01D92AC3DB207E1F710E00A
:1000F000CEE5D0E004C02197FE010E945906CD351F
:10010000D107C9F70E94C9010C946E060C94000037
:100110009091000189130DC0ECE7F0E0E4919FEFAE
:1001200090930001E13009F431C068F1E23009F444
:1001300033C090E0FC01E859FF4F2491FC01EB55DE
:10014000FF4F3491FC01EF56FF4FE491EE23D1F0C5
:10015000222351F0233009F43AC078F5213009F414
:100160003CC0223009F43DC0F0E0EE0FFF1FE35821
:10017000FF4FA591B4918FB7F894EC9130953E2341
:100180003C938FBF089510926E00D3CF90916F0073
:100190009D7F90936F00CDCF909170009D7F909345
:1001A000700091E09093B0009091B100987F9460BE
:1001B0009093B1001092B300BCCF2730A9F0283043
:1001C000C9F0243089F6809180008F7D03C0809132
:1001D00080008F7780938000C7CF84B58F7784BDF0
:1001E000C3CF84B58F7DFBCF8091B0008F77809394
:1001F000B000BACF8091B0008F7DF9CF3FB7F894AF
:100200008091C3039091C403A091C503B091C6032C
:1002100026B5A89B05C02F3F19F00196A11DB11D61
:100220003FBFBA2FA92F982F8827BC01CD01620F9D
:10023000711D811D911D42E0660F771F881F991F58
:100240004A95D1F708951F920F920FB60F9211247D
:100250002F933F934F935F936F937F938F939F93CE
:10026000AF93BF93EF93FF938091CC039091CD0315
:10027000A091CE03B091CF03892B8A2B8B2BD1F188
:100280009091C703E091C803F091C9038081892749
:1002900080838091CC039091CD03A091CE03B09147
:1002A000CF03181619061A061B069CF48091CC037E
:1002B0009091CD03A091CE03B091CF030197A109F6
:1002C000B1098093CC039093CD03A093CE03B09358
:1002D000CF03FF91EF91BF91AF919F918F917F914C
:1002E0006F915F914F913F912F910F900FBE0F90A3
:1002F0001F901895809100010E948800EACF1F92FC
:100300000F920FB60F9211242F933F938F939F93C9
:10031000AF93BF938091BF039091C003A091C1039D
:10032000B091C2033091BE0323E0230F2D3758F55F
:100330000196A11DB11D2093BE038093BF0390932E
:10034000C003A093C103B093C2038091C3039091F3
:10035000C403A091C503B091C6030196A11DB11DB0
:100360008093C3039093C403A093C503B093C603C3
:10037000BF91AF919F918F913F912F910F900FBEA1
:100380000F901F90189526E8230F0296A11DB11D0E
:10039000D2CFCF93DF9300D000D01F92CDB7DEB77E
:1003A000789484B5826084BD84B5816084BD85B550
:1003B000826085BD85B5816085BD80916E0081605C
:1003C00080936E0010928100809181008260809302
:1003D0008100809181008160809381008091800004
:1003E0008160809380008091B10084608093B1002F
:1003F0008091B00081608093B00080917A00846029
:1004000080937A0080917A00826080937A00809154
:100410007A00816080937A0080917A00806880936E
:100420007A001092C10001E011E0F801628173814D
:10043000161617060CF046C08091DA039091DB0384
:100440000E94E5057093D9036093D8036091D803A7
:100450007091D903F80120803180809100018330B0
:1004600009F04CC0ECE7F0E0F491FD83FD81F7FF6B
:1004700095C0C090D803D090D9030D2C000CEE0885
:10048000FF080E94FE004B015C01C114D104E1048D
:10049000F10409F450C20E94FE00681979098A0922
:1004A0009B09683E73408105910578F321E0C21AEB
:1004B000D108E108F10888EE880E83E0981EA11C9F
:1004C000B11CE3CF6115710509F4C0CF7195619539
:1004D00071098091DA039091DB030E94E505072EF4
:1004E000000C880B990B0E94EC0420E030E040ECFB
:1004F0005FE30E9450050E94B404A4CF8F3F09F02F
:10050000B8CF23E020930001ECE7F0E0F491FD8305
:10051000FF3F09F4AECFF13009F41FC130F1F230E2
:1005200009F0A4CF1092B0001092B1008091B000F9
:1005300082608093B0008091B10081608093B100AF
:10054000E4E9F0E08491E82FF0E0EE0FFF1FE358BC
:10055000FF4F859194919093C9038093C803E8EA73
:10056000F0E084918093C70319C014BC15BC84B516
:10057000826084BD85B5816085BDE4E9F0E0849149
:10058000E82FF0E0EE0FFF1FE358FF4F85919491A5
:10059000E8EAF0E084918093CB031D82E8EAF0E082
:1005A0004491E4E9F0E08491882399F090E0880F89
:1005B000991FFC01E957FF4FA591B491FC01E35845
:1005C000FF4F259134918FB7F8949C91492B4C9310
:1005D0008FBF072E000C880B990B0E94EC0426E6B7
:1005E00036E646E65FE30E9450050E94BB042B01FD
:1005F0003C014101B12CA12C60E072E18AE790E05E
:10060000A50191010E941B0629833A834B835C83D9
:1006100069017A01F1E0CF1AD108E108F1088D8172
:100620008D7F09F030C12FEFC216D104E104F1042F
:1006300009F00CF4FDC060E472E48FE090E0A501E5
:1006400091010E941B0669017A0181E0C81AD10854
:10065000E108F1089D81923009F09EC082E0EFEF41
:10066000CE16D104E104F10409F00CF46FC060E986
:1006700070ED83E090E0A50191010E941B066901E5
:100680007A01F1E0CF1AD108E108F10883E02FEFF9
:10069000C216D104E104F10409F00CF457C068E477
:1006A00078EE81E090E0A50191010E941B066901AE
:1006B0007A0181E0C81AD108E108F10884E09FEFCF
:1006C000C916D104E104F10409F00CF43FC064E25E
:1006D00074EF80E090E0A50194010E941B0669017F
:1006E0007A01F1E0CF1AD108E108F10885E09FEF27
:1006F000C916D104E104F10449F140F162E17AE75D
:1007000080E090E0A50194010E941B0669017A0136
:10071000E1E0CE1AD108E108F10886E0FFEFCF163C
:10072000D104E104F10491F088F0C980DA80EB8013
:10073000FC808AE0F594E794D794C7948A95D1F722
:1007400021E0C21AD108E108F10887E09091B100D8
:10075000987F892B8093B10073C010928000109213
:100760008100809181008860809381008091810068
:10077000816080938100E4E9F0E08491E82FF0E06B
:10078000EE0FFF1FE358FF4F85919491E8EAF0E0E8
:1007900084918093CA0302CF8FEFC816D104E1047D
:1007A000F10409F00CF46DC068E478EE81E090E0AB
:1007B000A50191010E941B0669017A0191E0C91A05
:1007C000D108E108F108ED8184E0E11190CF83E0E8
:1007D0002FEFC216D104E104F10471F16CF162E172
:1007E0007AE780E090E0A50194010E941B06690170
:1007F0007A0181E0C81AD108E108F10884E09FEF8E
:10080000C916D104E104F104B9F0B0F0C980DA806E
:10081000EB80FC809AE0F594E794D794C7949A957E
:10082000D1F7F1E0CF1AD108E108F10885E004C062
:1008300081E0ED81E1118ACF95B5987F892B85BD47
:100840002FEF3FEFA901411451046104710409F035
:1008500042C0FD81F13009F44CC0F23009F45BC0B4
:10086000F11107CEC7BC2093D4033093D503409336
:10087000D6035093D70380916E00826080936E0000
:10088000F8CD82E0D6CF91E0C114D104F1E0EF06BB
:10089000F10484F068E478EE81E090E0A501910134
:1008A0000E941B0669017A0181E0C81AD108E1089B
:1008B000F10893E0ED81E13019F680918100887FA5
:1008C000892B809381002FEF3FEFA9014114510440
:1008D0006104710471F0D101AA0FBB1FA301920141
:1008E0000E943A0628EE33E040E050E00E94F9050D
:1008F000B0CFD0928900C09288002093D00330936B
:10090000D1034093D2035093D30380916F00826050
:1009100080936F00AECDC092B3002093CC03309390
:10092000CD034093CE035093CF038091700082603B
:10093000809370009ECD83E00E9488000C5F1F4F63
:100940008DEB93E08017910709F06FCDE0E0F0E0C8
:10095000EF2BE1F30E940000F9CF82EB96E0909339
:10096000DB038093DA0308950E94BB046894B111FD
:100970000C944A0508950E942F0588F09F5798F01F
:10098000B92F9927B751B0F0E1F0660F771F881F94
:10099000991F1AF0BA95C9F714C0B13091F00E94AE
:1009A0004905B1E008950C944905672F782F8827F1
:1009B000B85F39F0B93FCCF3869577956795B395D5
:1009C000D9F73EF490958095709561957F4F8F4F44
:1009D0009F4F0895E89409C097FB3EF49095809549
:1009E000709561957F4F8F4F9F4F9923A9F0F92FF5
:1009F00096E9BB279395F695879577956795B79573
:100A0000F111F8CFFAF4BB0F11F460FF1BC06F5F58
:100A10007F4F8F4F9F4F16C0882311F096E911C06A
:100A2000772321F09EE8872F762F05C0662371F08B
:100A300096E8862F70E060E02AF09A95660F771F9F
:100A4000881FDAF7880F9695879597F9089557FDCF
:100A50009058440F551F59F05F3F71F04795880F2C
:100A600097FB991F61F09F3F79F0879508951216C3
:100A700013061406551FF2CF4695F1DF08C016166F
:100A800017061806991FF1CF869571056105089420
:100A90000895E894BB2766277727CB0197F9089537
:100AA0000E9463050C94D4050E94C60538F00E948C
:100AB000CD0520F0952311F00C94BD050C94C305D1
:100AC00011240C944A050E94270570F3959FC1F3E9
:100AD000950F50E0551F629FF001729FBB27F00DEC
:100AE000B11D639FAA27F00DB11DAA1F649F662741
:100AF000B00DA11D661F829F2227B00DA11D621F90
:100B0000739FB00DA11D621F839FA00D611D221F49
:100B1000749F3327A00D611D231F849F600D211D2D
:100B2000822F762F6A2F11249F5750409AF0F1F0B0
:100B300088234AF0EE0FFF1FBB1F661F771F881F19
:100B400091505040A9F79E3F510580F00C94BD058F
:100B50000C944A055F3FE4F3983ED4F3869577956D
:100B60006795B795F795E7959F5FC1F7FE2B880FBF
:100B7000911D9695879597F9089597F99F6780E855
:100B800070E060E008959FEF80EC089500240A94DF
:100B90001616170618060906089500240A94121658
:100BA0001306140605060895092E0394000C11F48B
:100BB000882352F0BB0F40F4BF2B11F460FF04C038
:100BC0006F5F7F4F8F4F9F4F089597FB072E16F44F
:100BD000009407D077FD09D00E94450607FC05D098
:100BE0003EF4909581959F4F0895709561957F4F44
:100BF0000895A1E21A2EAA1BBB1BFD010DC0AA1F5E
:100C0000BB1FEE1FFF1FA217B307E407F50720F075
:100C1000A21BB30BE40BF50B661F771F881F991FF0
:100C20001A9469F760957095809590959B01AC0139
:100C3000BD01CF010895052E97FB1EF400940E947C
:100C4000320657FD07D00E94F90507FC03D04EF489
:100C50000C94320650954095309521953F4F4F4F5B
:100C60005F4F089590958095709561957F4F8F4F58
:100C70009F4F08950E945F06A59F900DB49F900D11
:100C8000A49F800D911D11240895AA1BBB1B51E147
:100C900007C0AA1FBB1FA617B70710F0A61BB70BEC
:100CA000881F991F5A95A9F780959095BC01CD0191
:100CB0000895EE0FFF1F0590F491E02D0994A29F77
:100CC000B001B39FC001A39F700D811D1124911D20
:100CD000B29F700D811D1124911D0895F894FFCFCE
:100CE000FF000002004B020800EE0104004B020866
:100CF000002A0204004B0208002A020400B8010284
:100D00000000000800B8010800E402080093020493
:100D1000004B0208002A0204004B0208002A0204C9
:100D200000B8010200000004004B020800EE0104BC
:100D3000004B0208002A0204004B0208002A0204A9
:100D400000B801020000000800EE010800EE0108F2
:100D50000088010400EE010800B8010400EE01085B
:100D600000B801040026010200000004004B020844
:100D700000EE0104004B0208002A0204004B0208A6
:100D8000002A020400B801020000000800B80108AF
:100D900000E4020800930204004B0208002A020447
:100DA000004B0208002A020400B8010200000004FF
:100DB000004B020800EE0104004B0208002A020466
:100DC000004B0208002A020400B8010200000008DB
:100DD00000EE010800EE01080088010400EE0108A1
:100DE00000B8010400EE010800B801040026010863
:100DF0000026010800720108004A01FFFF000008F8
:100E000000260108004A0108007201FFFF000008E7
:100E1000002601080026010800720108005D01FF9C
:100E2000FF00000800260108005D0108004A01FFDC
:100E3000FF000002004B020800EE0104004B020814
:100E4000002A0204004B0208002A020400B8010232
:100E50000000000800B8010800E402080093020442
:100E6000004B0208002A0204004B0208002A020478
:100E700000B8010200000004004B020800EE01046B
:100E8000004B0208002A0204004B0208002A020458
:100E900000B801020000000800EE010800EE0108A1
:100EA0000088010400EE010800B8010400EE01080A
:100EB00000B801040026010200000004004B0208F3
:100EC00000EE0104004B0208002A0204004B020855
:100ED000002A020400B801020000000800B801085E
:100EE00000E4020800930204004B0208002A0204F6
:100EF000004B0208002A020400B8010200000004AE
:100F0000004B020800EE0104004B0208002A020414
:100F1000004B0208002A020400B801020000000889
:100F200000EE010800EE01080088010400EE01084F
:100F300000B8010400EE010800B801040026010811
:100F40000026010800720108004A01FFFF000008A6
:100F500000260108004A0108007201FFFF00000896
:100F6000002601080026010800720108005D01FF4B
:100F7000FF00000800260108005D0108004A010882
:100F8000004A01FEFFB80108002A020800E4020836
:0E0F900000930204004B0208007003FCFF00F7
:00000001FF
