:100000000C945E000C9486000C9486000C94860080
:100010000C9486000C9486000C9486000C942301AA
:100020000C9486000C9486000C9486000C94860038
:100030000C9486000C9486000C9486000C94860028
:100040000C947F010C9486000C9486000C9486001E
:100050000C9486000C9486000C9486000C94860008
:100060000C9486000C948600000000080002010039
:100070000003040700000000000000000200000070
:1000800000250028002B0000000000240027002A83
:100090000004040404040404040202020202020331
:1000A000030303030301020408102040800102043B
:1000B00008102001020408102000AD0411241FBE06
:1000C000CFEFD8E0DEBFCDBF17E0A0E0B1E0E0EEBB
:1000D000FCE002C005900D92AA38B107D9F727E0DD
:1000E000AAE8B7E001C01D92A83AB207E1F710E014
:1000F000CEE5D0E004C02197FE010E945906CD351F
:10010000D107C9F70E94C9010C946E060C94000037
:100110009091000189130DC0ECE7F0E0E4919FEFAE
:1001200090930001E13009F431C068F1E23009F444
:1001300033C090E0FC01E859FF4F2491FC01EB55DE
:10014000FF4F3491FC01EF56FF4FE491EE23D1F0C5
:10015000222351F0233009F43AC078F5213009F414
:100160003CC0223009F43DC0F0E0EE0FFF1FE35821
:10017000FF4FA591B4918FB7F894EC9130953E2341
:100180003C938FBF089510926E00D3CF90916F0073
:100190009D7F90936F00CDCF909170009D7F909345
:1001A000700091E09093B0009091B100987F9460BE
:1001B0009093B1001092B300BCCF2730A9F0283043
:1001C000C9F0243089F6809180008F7D03C0809132
:1001D00080008F7780938000C7CF84B58F7784BDF0
:1001E000C3CF84B58F7DFBCF8091B0008F77809394
:1001F000B000BACF8091B0008F7DF9CF3FB7F894AF
:1002000080918F0790919007A0919107B0919207EC
:1002100026B5A89B05C02F3F19F00196A11DB11D61
:100220003FBFBA2FA92F982F8827BC01CD01620F9D
:10023000711D811D911D42E0660F771F881F991F58
:100240004A95D1F708951F920F920FB60F9211247D
:100250002F933F934F935F936F937F938F939F93CE
:10026000AF93BF93EF93FF93809198079091990775
:10027000A0919A07B0919B07892B8A2B8B2BD1F1E8
:1002800090919307E0919407F091950780818927D9
:1002900080838091980790919907A0919A07B091D7
:1002A0009B07181619061A061B069CF480919807DE
:1002B00090919907A0919A07B0919B070197A10986
:1002C000B1098093980790939907A0939A07B093E8
:1002D0009B07FF91EF91BF91AF919F918F917F917C
:1002E0006F915F914F913F912F910F900FBE0F90A3
:1002F0001F901895809100010E948800EACF1F92FC
:100300000F920FB60F9211242F933F938F939F93C9
:10031000AF93BF9380918B0790918C07A0918D072D
:10032000B0918E0730918A0723E0230F2D3758F5BF
:100330000196A11DB11D20938A0780938B0790938E
:100340008C07A0938D07B0938E0780918F079091B3
:100350009007A0919107B09192070196A11DB11D40
:1003600080938F0790939007A0939107B093920783
:10037000BF91AF919F918F913F912F910F900FBEA1
:100380000F901F90189526E8230F0296A11DB11D0E
:10039000D2CFCF93DF9300D000D01F92CDB7DEB77E
:1003A000789484B5826084BD84B5816084BD85B550
:1003B000826085BD85B5816085BD80916E0081605C
:1003C00080936E0010928100809181008260809302
:1003D0008100809181008160809381008091800004
:1003E0008160809380008091B10084608093B1002F
:1003F0008091B00081608093B00080917A00846029
:1004000080937A0080917A00826080937A00809154
:100410007A00816080937A0080917A00806880936E
:100420007A001092C10001E011E0F801628173814D
:10043000161617060CF046C08091A6079091A707E4
:100440000E94E5057093A5076093A4076091A40737
:100450007091A507F80120803180809100018330E0
:1004600009F04CC0ECE7F0E0F491FD83FD81F7FF6B
:1004700095C0C090A407D090A5070D2C000CEE08E5
:10048000FF080E94FE004B015C01C114D104E1048D
:10049000F10409F450C20E94FE00681979098A0922
:1004A0009B09683E73408105910578F321E0C21AEB
:1004B000D108E108F10888EE880E83E0981EA11C9F
:1004C000B11CE3CF6115710509F4C0CF7195619539
:1004D00071098091A6079091A7070E94E505072E54
:1004E000000C880B990B0E94EC0420E030E040ECFB
:1004F0005FE30E9450050E94B404A4CF8F3F09F02F
:10050000B8CF23E020930001ECE7F0E0F491FD8305
:10051000FF3F09F4AECFF13009F41FC130F1F230E2
:1005200009F0A4CF1092B0001092B1008091B000F9
:1005300082608093B0008091B10081608093B100AF
:10054000E4E9F0E08491E82FF0E0EE0FFF1FE358BC
:10055000FF4F859194919093950780939407E8EAD3
:10056000F0E084918093930719C014BC15BC84B546
:10057000826084BD85B5816085BDE4E9F0E0849149
:10058000E82FF0E0EE0FFF1FE358FF4F85919491A5
:10059000E8EAF0E08491809397071D82E8EAF0E0B2
:1005A0004491E4E9F0E08491882399F090E0880F89
:1005B000991FFC01E957FF4FA591B491FC01E35845
:1005C000FF4F259134918FB7F8949C91492B4C9310
:1005D0008FBF072E000C880B990B0E94EC0426E6B7
:1005E00036E646E65FE30E9450050E94BB042B01FD
:1005F0003C014101B12CA12C60E072E18AE790E05E
:10060000A50191010E941B0629833A834B835C83D9
:1006100069017A01F1E0CF1AD108E108F1088D8172
:100620008D7F09F030C12FEFC216D104E104F1042F
:1006300009F00CF4FDC060E472E48FE090E0A501E5
:1006400091010E941B0669017A0181E0C81AD10854
:10065000E108F1089D81923009F09EC082E0EFEF41
:10066000CE16D104E104F10409F00CF46FC060E986
:1006700070ED83E090E0A50191010E941B066901E5
:100680007A01F1E0CF1AD108E108F10883E02FEFF9
:10069000C216D104E104F10409F00CF457C068E477
:1006A00078EE81E090E0A50191010E941B066901AE
:1006B0007A0181E0C81AD108E108F10884E09FEFCF
:1006C000C916D104E104F10409F00CF43FC064E25E
:1006D00074EF80E090E0A50194010E941B0669017F
:1006E0007A01F1E0CF1AD108E108F10885E09FEF27
:1006F000C916D104E104F10449F140F162E17AE75D
:1007000080E090E0A50194010E941B0669017A0136
:10071000E1E0CE1AD108E108F10886E0FFEFCF163C
:10072000D104E104F10491F088F0C980DA80EB8013
:10073000FC808AE0F594E794D794C7948A95D1F722
:1007400021E0C21AD108E108F10887E09091B100D8
:10075000987F892B8093B10073C010928000109213
:100760008100809181008860809381008091810068
:10077000816080938100E4E9F0E08491E82FF0E06B
:10078000EE0FFF1FE358FF4F85919491E8EAF0E0E8
:1007900084918093960702CF8FEFC816D104E104AD
:1007A000F10409F00CF46DC068E478EE81E090E0AB
:1007B000A50191010E941B0669017A0191E0C91A05
:1007C000D108E108F108ED8184E0E11190CF83E0E8
:1007D0002FEFC216D104E104F10471F16CF162E172
:1007E0007AE780E090E0A50194010E941B06690170
:1007F0007A0181E0C81AD108E108F10884E09FEF8E
:10080000C916D104E104F104B9F0B0F0C980DA806E
:10081000EB80FC809AE0F594E794D794C7949A957E
:10082000D1F7F1E0CF1AD108E108F10885E004C062
:1008300081E0ED81E1118ACF95B5987F892B85BD47
:100840002FEF3FEFA901411451046104710409F035
:1008500042C0FD81F13009F44CC0F23009F45BC0B4
:10086000F11107CEC7BC2093A0073093A107409396
:10087000A2075093A30780916E00826080936E0060
:10088000F8CD82E0D6CF91E0C114D104F1E0EF06BB
:10089000F10484F068E478EE81E090E0A501910134
:1008A0000E941B0669017A0181E0C81AD108E1089B
:1008B000F10893E0ED81E13019F680918100887FA5
:1008C000892B809381002FEF3FEFA9014114510440
:1008D0006104710471F0D101AA0FBB1FA301920141
:1008E0000E943A0628EE33E040E050E00E94F9050D
:1008F000B0CFD0928900C092880020939C0730939B
:100900009D0740939E0750939F0780916F008260E0
:1009100080936F00AECDC092B300209398073093C0
:10092000990740939A0750939B07809170008260CB
:10093000809370009ECD83E00E9488000C5F1F4F63
:1009400089E897E08017910709F06FCDE0E0F0E0CB
:10095000EF2BE1F30E940000F9CF89E593E090933B
:10096000A7078093A60708950E94BB046894B1115D
:100970000C944A0508950E942F0588F09F5798F01F
:10098000B92F9927B751B0F0E1F0660F771F881F94
:10099000991F1AF0BA95C9F714C0B13091F00E94AE
:1009A0004905B1E008950C944905672F782F8827F1
:1009B000B85F39F0B93FCCF3869577956795B395D5
:1009C000D9F73EF490958095709561957F4F8F4F44
:1009D0009F4F0895E89409C097FB3EF49095809549
:1009E000709561957F4F8F4F9F4F9923A9F0F92FF5
:1009F00096E9BB279395F695879577956795B79573
:100A0000F111F8CFFAF4BB0F11F460FF1BC06F5F58
:100A10007F4F8F4F9F4F16C0882311F096E911C06A
:100A2000772321F09EE8872F762F05C0662371F08B
:100A300096E8862F70E060E02AF09A95660F771F9F
:100A4000881FDAF7880F9695879597F9089557FDCF
:100A50009058440F551F59F05F3F71F04795880F2C
:100A600097FB991F61F09F3F79F0879508951216C3
:100A700013061406551FF2CF4695F1DF08C016166F
:100A800017061806991FF1CF869571056105089420
:100A90000895E894BB2766277727CB0197F9089537
:100AA0000E9463050C94D4050E94C60538F00E948C
:100AB000CD0520F0952311F00C94BD050C94C305D1
:100AC00011240C944A050E94270570F3959FC1F3E9
:100AD000950F50E0551F629FF001729FBB27F00DEC
:100AE000B11D639FAA27F00DB11DAA1F649F662741
:100AF000B00DA11D661F829F2227B00DA11D621F90
:100B0000739FB00DA11D621F839FA00D611D221F49
:100B1000749F3327A00D611D231F849F600D211D2D
:100B2000822F762F6A2F11249F5750409AF0F1F0B0
:100B300088234AF0EE0FFF1FBB1F661F771F881F19
:100B400091505040A9F79E3F510580F00C94BD058F
:100B50000C944A055F3FE4F3983ED4F3869577956D
:100B60006795B795F795E7959F5FC1F7FE2B880FBF
:100B7000911D9695879597F9089597F99F6780E855
:100B800070E060E008959FEF80EC089500240A94DF
:100B90001616170618060906089500240A94121658
:100BA0001306140605060895092E0394000C11F48B
:100BB000882352F0BB0F40F4BF2B11F460FF04C038
:100BC0006F5F7F4F8F4F9F4F089597FB072E16F44F
:100BD000009407D077FD09D00E94450607FC05D098
:100BE0003EF4909581959F4F0895709561957F4F44
:100BF0000895A1E21A2EAA1BBB1BFD010DC0AA1F5E
:100C0000BB1FEE1FFF1FA217B307E407F50720F075
:100C1000A21BB30BE40BF50B661F771F881F991FF0
:100C20001A9469F760957095809590959B01AC0139
:100C3000BD01CF010895052E97FB1EF400940E947C
:100C4000320657FD07D00E94F90507FC03D04EF489
:100C50000C94320650954095309521953F4F4F4F5B
:100C60005F4F089590958095709561957F4F8F4F58
:100C70009F4F08950E945F06A59F900DB49F900D11
:100C8000A49F800D911D11240895AA1BBB1B51E147
:100C900007C0AA1FBB1FA617B70710F0A61BB70BEC
:100CA000881F991F5A95A9F780959095BC01CD0191
:100CB0000895EE0FFF1F0590F491E02D0994A29F77
:100CC000B001B39FC001A39F700D811D1124911D20
:100CD000B29F700D811D1124911D0895F894FFCFCE
:100CE000FF4B0201006E020100BA02010000000485
:100CF00000BA02FCFF6E0208004B020800BA0201B3
:100D000000D20108008801FEFF5D0101005D0101C4
:100D10000000000400000008005D010800880108D0
:100D2000009F010800D20108000B0208004B0201DD
:100D3000006E020100BA020100BA02FCFF6E020856
:100D4000004B0208002A0208000B02FEFFD2010835
:100D500000880101005D01FFFF000004004B02FC60
:100D6000FF000010004B0210004B020200000004C4
:100D7000004B0208006E020800BA020800100308C7
:100D800000BA0208006E0208004B0208004B02FC89
:100D9000FF6E0210006E02020000000400880108CD
:100DA000000B0208004B0208006E020800BA02089D
:100DB000006E0208004B0208000B02FCFF0000104E
:100DC000008801020000000400880108009F01085B
:100DD00000D20108000B020800D20108009F0108A0
:100DE00000100308005D01FCFFD201FCFF88010236
:100DF000000000080006010800260108003701086D
:100E000000880108000B0208004B02FCFF000010E4
:100E1000004B02F0FF4B020200000004004B0208EE
:100E2000006E020800BA02080010030800BA0208A7
:100E3000006E0208004B0208004B02FCFF6E02F03D
:100E4000FF6E020200000004000B0208004B0208C3
:100E5000006E020800BA0208006E0208004B020889
:100E600000D2010800D201FCFF0B02FCFF0B02FCC8
:100E7000FF5D01FCFF00000800880104004B020434
:100E8000006E0204004B02FCFF000010000B021079
:100E9000000B020200000004004B0204006E02047A
:100EA00000BA0204001003FCFF00001000BA0202A6
:100EB00000A403FCFF1003FCFF6E0204004B02FCC5
:100EC000FF000010006E020200000004000B020888
:100ED000004B0208006E02080093020800BA0208E4
:100EE00000E40208001003FCFFBA02FCFF0000044B
:100EF00000A403020010030400BA02080010030853
:100F0000000000080093020800000008004B0208DF
:100F1000000B02FEFF0000080088010800B801086D
:100F200000D20108000B0208004B0208006E020804
:100F3000006E02FCFF4B02FCFFD201040000000423
:100F4000006E02080093020800BA0204009302082F
:100F5000006E0208004B020800A40308000B020404
:100F600000880108004B020400880108004B0204BD
:100F70000000000800E402080010030800E4020872
:100F800000BA0208006E0208004B0208006E020858
:100F90000000000800A4030800100308006E020807
:100FA00000BA020800000008001003080000000852
:100FB00000E4020800BA0208006E020800BA020843
:100FC000006E0208004B0208006E0208004B02FC93
:100FD000FF0B02FCFF00000400000004000B0208ED
:100FE000004B0208006E0208004B0208000B0208CA
:100FF00000D20108004B0208006E020800BA020885
:1010000000100308004B0208000B0208004B020806
:10101000006E020800BA02080010030800A40308CA
:10102000003F03080010030800BA0208006E02081F
:1010300000BA0208006E0208004B0210006E021097
:10104000004B021000D20108000B0208004B0208FE
:10105000006E020800BA02080010030800A403088A
:10106000003F03080010030800BA0208006E0208DF
:10107000004B0208006E0208000B0208004B020839
:10108000006E020800BA0208000B0208008801087E
:10109000000B0208004B0208006E020800BA0208AA
:1010A00000A4030800BA0208006E0208004B020800
:1010B00000D20108006E0208004B0208004B02102B
:1010C000006E0210004B021000880108000B02089D
:1010D000004B0208006E020800BA020800BA0208BB
:1010E00000A4030800BA0208006E0208004B0208C0
:1010F000006E0208004B020800D20108004B0208F3
:10110000006E020800BA02080010030800D20108AD
:101110000088010800D20108006E020800A403083C
:10112000006E020800A40308003F03080010030833
:10113000003F03080010030800BA0208006E02080E
:10114000004B0210006E0210004B021000D201088A
:10115000000B0208004B0208006E020800BA0208E9
:1011600000170408004B020800A40308004B020803
:10117000000B0208004B020800DC0308008801088D
:10118000000601080037010800880108000B02086A
:10119000006E02080010030800000008000B02089F
:1011A000004B0208006E0208004B0210006E021095
:1011B000004B0210000B020800880108000B020817
:1011C00000100308004B02FCFF0B0208000B020199
:1011D0000000000400370108000601FCFF3701028F
:1011E0000097040200F7000200370108000601FC26
:1011F000FFC400020097040200F700020037010854
:10120000000601FCFF8801020072010200260102B3
:10121000005D010200260102002601020088010291
:101220000088010100880101008801010088010196
:101230000000000100000001008801010088010198
:101240000037010200880102008801020006010443
:101250000026010800370108005D010200D20102EA
:1012600000D201020006010400260108003701082F
:1012700000370102008801FEFF5D010200880108BD
:10128000005D0108008801FEFF2601FFFF06010244
:10129000008801FEFF5D01020026010800370108F9
:1012A000005D010200E9000200D201020006010413
:1012B00000260108003701080037010200D201FEB4
:1012C000FF9F010200880108005D0108005D010820
:1012D000008801FFFF370102008801020088010237
:1012E000000601040026010800370108005D010224
:1012F00000D2010200D2010200060104002601080A
:101300000037010800370102008801FEFF5D01027D
:1013100000880108005D0108008801FEFF2601FF2A
:10132000FF060102008801FEFF5D010200260108A0
:1013300000370108005D010200E9000200D201024D
:1013400000060104002601080037010800370102E9
:1013500000D201FEFF9F010200880108005D010824
:0A136000005D0108008801FFFF0096
:00000001FF
