:100200000C9450010C946D010C946D010C946D01D3
:100210000C946D010C946D010C946D010C946D01A6
:100220000C946D010C946D010C946D010C946D0196
:100230000C946D010C94A4030C946D010C946D014D
:100240000C946D010C946D010C946D010C946D0176
:100250000C946D010C946D010C946D010C946D0166
:100260000C946D010C946D010C946D010C946D0156
:100270000C946D010C946D010C946D010C946D0146
:100280000C946D010C946D010C946D010C946D0136
:100290000C9401040C946D010C946D010C946D018F
:1002A00011241FBECFEFCDBFDFE3DEBF18E2A0E019
:1002B000B8E2E0E9FDE002C005900D92A630B1077A
:1002C000D9F728E2A6E0B8E201C01D92A132B20738
:1002D000E1F70E9465040C9474060C94000190E010
:1002E000FC01E959F24B20812F3F51F0825C924B87
:1002F000DC01EC91B0E2EB9FF0011124FC5F218363
:100300000895282F30E0F901E959F24B40814F3F21
:1003100009F44EC0893258F4F901E451F34BE081FD
:10032000EE2329F0E13099F010F0E63010F1F901F8
:10033000E25CF24BE081A0E2EA9FF0011124FC5F55
:100340008081842311F1672BF1F446830895E091B5
:10035000010AD901AB5EB24B5C915C5F81E090E039
:1003600001C0880F5A95EAF780958E238093010A81
:10037000DECF80E1E89FF0011124E05AF54F818142
:100380008F7E8183D4CF458308952B5E324BD90174
:100390008C91309771F08F3F61F07096E80FF11DEE
:1003A0009FB7F8948081672B39F4877F80839FBF44
:1003B0000895F0E0E0E0F4CF8860F8CFCF93DF93CA
:1003C0008FB7F89420910E2830910F284091102873
:1003D00050911128E091BA0A9091B60A90FF06C098
:1003E0002F5F3F4F4F4F5F4FE091BA0A8FBFA091F1
:1003F0001F28B0912028C0911D28D0911E280E944E
:100400005A06EC9F9001ED9F300D1124620F731F6F
:10041000811D911DDF91CF9108958F929F92AF9290
:10042000BF92CF92DF92EF92FF924B015C010E944C
:10043000DE016B017C01A8EEB3E0A50194010E94EE
:100440005A06C60ED71EE81EF91EC616D706E806BF
:10045000F90618F40E94DE01F8CF0E94DE016C1547
:100460007D058E059F05C8F3FF90EF90DF90CF903C
:10047000BF90AF909F908F9008954F925F926F9230
:100480007F928F929F92AF92BF92CF92DF92EF9224
:10049000FF920F931F93CF93DF938C017B014B014E
:1004A000770FAA08BB088091002890910128039734
:1004B00049F083E00E946F0183E090E08093002880
:1004C000909301288091002890910128D0E0C0E00D
:1004D000893291054CF4FC01E25CF24BC08120E2D0
:1004E000C29FE0011124DC5F2796DD24DA94893273
:1004F000910524F48959924BFC01D0806091022827
:100500007091032880910428909105289801012E6C
:10051000000C440B550B0E94310629013A017694D8
:1005200067945794479481E0481A5108610871080C
:1005300041145104E1E06E06710410F4C12C10C0A6
:1005400029013A0127E076946794579447942A95B5
:10055000D1F7F1E04F1A510861087108CC24C39417
:100560009801220F331FD7010E94530628EE33E073
:1005700040E050E00E9431069FB7F894CC2009F487
:1005800069C084E08093900A1092910A40929C0A7C
:1005900050929D0A81E08093950AC0931328D093CE
:1005A0001428D092122820931528309316284093AF
:1005B0001728509318288091900A81608093900AA0
:1005C0009FBFC0910628D091072861E070E0C0FD70
:1005D00044C08CE00E948101C501B4010E940D025B
:1005E00070E060E08CE00E94810180910028909191
:1005F0000128039799F4109215281092162810924A
:1006000017281092182870E060E083E00E948101B2
:100610008FEF90E0809300289093012862E370E0D0
:1006200080E090E00E940D022196C0930628D093AE
:100630000728DF91CF911F910F91FF90EF90DF90EE
:10064000CF90BF90AF909F908F907F906F905F9072
:100650004F9008951092900A97CF8DE00E948101EB
:10066000C501B4010E940D0270E060E08DE0BBCFD7
:1006700064EF71E080E793E00E943D026CE271E07C
:1006800088EB91E00E943D0266E970E088EB91E022
:100690000E943D0264EF71E080E793E00E943D021A
:1006A00065E471E08EE393E00E943D026FEA70E042
:1006B00080E193E00E943D026DE770E084EE92E0FD
:1006C0000E943D026DE770E08AEB92E00E943D02DD
:1006D0006AEF70E084EE92E00E943D0265E471E012
:1006E00080E090E00E940D026AEF70E087EC91E0FC
:1006F0000E943D0264EF71E08EE692E00E943D02AE
:1007000065E471E08BE492E00E943D026FEA70E0E4
:100710008AE292E00E943D026DE770E08BE092E099
:100720000E943D026DE770E082ED91E00E943D0283
:100730006AEF70E08BE092E00E943D026EE571E0AE
:1007400080E090E00C940D021F920F920FB60F9272
:1007500011248F939F93AF93BF93EF93FF93809157
:10076000152890911628A0911728B0911828892B48
:100770008A2B8B2BA9F1E0911328F09114288091FA
:10078000122880838091152890911628A09117280F
:10079000B0911828181619061A061B069CF48091A9
:1007A000152890911628A0911728B0911828019724
:1007B000A109B1098093152890931628A0931728B2
:1007C000B093182881E08093960AFF91EF91BF9132
:1007D000AF919F918F910F900FBE0F901F90189522
:1007E0008091152890911628A0911728B09118286B
:1007F000892B8A2B8B2B31F71092950A1092900A35
:10080000E1CF1F920F920FB60F9211242F933F93B7
:100810004F935F936F937F938F939F93AF93BF9308
:1008200040910A2850910B2860910C2870910D2856
:10083000809108289091092820911B2830911C282C
:10084000420F531F611D711D2091192830911A28E4
:10085000820F931F883E23E0920730F0885E93401A
:100860004F5F5F4F6F4F7F4F809308289093092809
:1008700040930A2850930B2860930C2870930D28FE
:1008800080910E2890910F28A0911028B0911128E6
:100890000196A11DB11D80930E2890930F28A0935F
:1008A0001028B093112881E08093B60ABF91AF91D0
:1008B0009F918F917F916F915F914F913F912F9178
:1008C0000F900FBE0F901F90189588ED90E084BF99
:1008D0009093610080E094E2A4EFB0E0809302285E
:1008E00090930328A0930428B093052880910206D2
:1008F00086608093020680910006816080930006E6
:10090000809102068F7C809302068091A0008F78F0
:100910008093A0008091020680618093020610926D
:10092000E20581E08093E40583E08093010A8FEF84
:1009300090E08093260A9093270A80E890E08093C5
:10094000380A9093390A80933A0A90933B0A80932D
:100950003C0A90933D0A8BE08093000A8091E50564
:1009600081608093E5058091E50582608093E505CF
:10097000E0E8FAE037E02FEF90E885E03183248764
:10098000958780837096E03C4AE0F407B9F780E0F1
:1009900094E080931F289093202880911F289091A5
:1009A00020282FEF30E0B9010E941D0660931D281A
:1009B00070931E2880911F2890912028E8EEF3E084
:1009C000BF010E941D0660931B2870931C28809114
:1009D0001F2890912028BF010E941D06809319288E
:1009E00090931A282093BC0A3093BD0A8091B50ACF
:1009F00081608093B50A84E08093B00A8091B00A48
:100A000081608093B00A78948CE10E946F0161E06C
:100A100070E08CE10E9481018DE10E946F0161E034
:100A200070E08DE10E94810183E20E946F0161E02C
:100A300070E083E20E9481018EE10E946F0161E01B
:100A400070E08EE10E94810183E00E946F018CE0E2
:100A50000E946F018DE00E946F01C0E0D0E064EF62
:100A600071E088EB91E00E943D0264EF71E088EB59
:100A700091E00E943D0264EF71E088EB91E00E94FA
:100A80003D026EE571E08DE591E00E943D0266E970
:100A900070E08BE092E00E943D0264EF71E088EB31
:100AA00091E00E943D026EE571E08DE591E00E94CB
:100AB0003D0266E970E08BE092E00E943D026AE848
:100AC00072E088EB91E00E943D0264EF71E080E00B
:100AD00090E00E940D0264EF71E083E992E00E94D1
:100AE0003D0264EF71E083E992E00E943D0264EF11
:100AF00071E083E992E00E943D026EE571E08AEBCD
:100B000092E00E943D0266E970E08BE092E00E9474
:100B10003D0264EF71E08FE991E00E943D026EE5D5
:100B200071E08DE591E00E943D0266E970E08BE0A6
:100B300092E00E943D026AE872E088EB91E00E9438
:100B40003D0264EF71E080E090E00E940D020E949F
:100B500038036AEF70E08DE591E00E943D0264EF9A
:100B600071E08FE991E00E943D026EE571E08DE554
:100B700091E00E943D026DE770E088EB91E00E94F9
:100B80003D0264EF71E08BE092E00E943D0267E776
:100B900071E088EB91E00E943D026DE770E08BE030
:100BA00092E00E943D026AE872E083E992E00E94CE
:100BB0003D0264EF71E080E090E00E940D020E942F
:100BC00038036AEF70E08DE591E00E943D0264EF2A
:100BD00071E08FE991E00E943D0267E771E08DE5E9
:100BE00091E00E943D026DE770E08BE092E00E9490
:100BF0003D0264EF71E088EB91E00E943D0267E7FF
:100C000071E08DE591E00E943D026DE770E08BE0C0
:100C100092E00E943D026AE872E088EB91E00E9457
:100C20003D026AE872E080E090E00E940D022097A9
:100C300009F415CF0E94000012CFAA1BBB1B51E183
:100C400007C0AA1FBB1FA617B70710F0A61BB70B3C
:100C5000881F991F5A95A9F780959095BC01CD01E1
:100C60000895A1E21A2EAA1BBB1BFD010DC0AA1FED
:100C7000BB1FEE1FFF1FA217B307E407F50720F005
:100C8000A21BB30BE40BF50B661F771F881F991F80
:100C90001A9469F760957095809590959B01AC01C9
:100CA000BD01CF0108950E946506B7FF0895821B1C
:100CB000930B08950E946506A59F900DB49F900D1B
:100CC000A49F800D911D11240895A29FB001B39F90
:100CD000C001A39F700D811D1124911DB29F700D45
:0C0CE000811D1124911D0895F894FFCF90
:100CEC0000000003000102000001010000000000F0
:100CFC0000000000000000000000000000000000E8
:100D0C0000000000000000000005040005060204BD
:100D1C0001030001000102000102030405020303A8
:100D2C00050406050406070307000102020300017F
:100D3C000706020200050201050004010104040477
:100D4C00030303030303000002000003010100007E
:100D5C0001020202020505050503052010012040D1
:100D6C00041002080102010204010204081020040C
:100D7C00080820104020104080088001020404085C
:040D8C0001028040A0
:060D9000FF000024F40046
:0400000300000200F7
:00000001FF
