:100000000C945D000C947A000C947A000C947A00A5
:100010000C947A000C947A000C947A000C9470037F
:100020000C947A000C947A000C947A000C947A0068
:100030000C947A000C947A000C947A000C947A0058
:100040000C94CC030C947A000C947A000C947A00F3
:100050000C947A000C947A000C947A000C947A0038
:100060000C947A000C947A00000000080002010051
:100070000003040700000000000000000200000070
:1000800000250028002B0000000000240027002A83
:100090000004040404040404040202020202020331
:1000A000030303030301020408102040800102043B
:1000B0000810200102040810200011241FBECFEFF9
:1000C000D8E0DEBFCDBF11E0A0E0B1E0E6E5FBE0A7
:1000D00002C005900D92A230B107D9F721E0A2E04D
:1000E000B1E001C01D92AE31B207E1F70E941604E3
:1000F0000C94A9050C94000090E0FC01EB55FF4F17
:1001000024918F569F4FFC018491882399F090E0B1
:10011000880F991FFC01E957FF4FA591B491FC018D
:10012000E358FF4F859194918FB7F894EC91E22BAF
:10013000EC938FBF089590E0FC01E859FF4F2491A4
:10014000FC01EB55FF4F3491FC01EF56FF4FE4915A
:10015000EE23C9F0222339F0233001F1A8F4213035
:1001600019F1223029F1F0E0EE0FFF1FE358FF4FA5
:10017000A591B4918FB7F894EC91611126C0309598
:100180003E233C938FBF08952730A9F02830C9F053
:10019000243049F7809180008F7D03C080918000DA
:1001A0008F7780938000DFCF84B58F7784BDDBCFDE
:1001B00084B58F7DFBCF8091B0008F778093B000A6
:1001C000D2CF8091B0008F7DF9CF3E2BDACF9091C6
:1001D000000189130BC0ECE7F0E0E4919FEF9093EE
:1001E0000001E13049F028F0E23061F060E00C9469
:1001F0009B0010926E00FACF90916F009D7F9093BC
:100200006F00F4CF909170009D7F9093700091E00B
:100210009093B0009091B100987F94609093B1005A
:100220001092B300E3CF3FB7F894809113019091FF
:100230001401A0911501B091160126B5A89B05C027
:100240002F3F19F00196A11DB11D3FBFBA2FA92F55
:10025000982F8827BC01CD01620F711D811D911D52
:1002600042E0660F771F881F991F4A95D1F70895BE
:100270008F929F92AF92BF92CF92DF92EF92FF92B6
:100280006B017C010E9413014B015C01C114D1047C
:10029000E104F104B9F00E941301681979098A098F
:1002A0009B09683E73408105910580F321E0C21AE5
:1002B000D108E108F10888EE880E83E0981EA11CA1
:1002C000B11CE4CFFF90EF90DF90CF90BF90AF9044
:1002D0009F908F9008952F923F924F925F926F92CE
:1002E0007F928F929F92AF92BF92CF92DF92EF92C6
:1002F000FF921F93CF93DF93EC011B014B01770F0C
:10030000AA08BB08809100018330A9F18F3F09F44E
:1003100078C0C0910C01D0910D0161E0C0FD5EC1BB
:100320008CE00E949B00C501B4010E94380160E08E
:100330008CE00E949B0083E00E94E70062E370E093
:1003400080E090E00E9438012196D0930D01C09387
:100350000C01DF91CF911F91FF90EF90DF90CF9034
:10036000BF90AF909F908F907F906F905F904F90D5
:100370003F902F900895ECE7F0E0149117FDC9CF5E
:1003800083E00E947C00112319F0123009F0E9C0CB
:100390002E010D2E000C6608770868E478EE81E0E7
:1003A00090E0A30192010E94740569017A0181E045
:1003B000C81AD108E108F108112309F419C1123053
:1003C00009F08DC08FEFC816D104E104F10409F0E3
:1003D0000CF4C5C064E274EF80E090E0A3019201E8
:1003E0000E94740569017A0181E0C81AD108E10808
:1003F000F10895E08091B100887F892B8093B1004E
:100400008CC083E080930001ECE7F0E014911F3F83
:1004100009F47FCF113019F148F0123009F43DC0D2
:1004200017FD77CF83E00E947C00AFCF14BC15BCD2
:1004300084B5826084BD85B5816085BDE4E9F0E066
:10044000E491F0E0EE0FFF1FE358FF4F8591949188
:10045000E8EAF0E0E491E093030110E091CF10921C
:1004600080001092810080918100886080938100DB
:1004700080918100816080938100E4E9F0E0E49163
:10048000F0E0EE0FFF1FE358FF4F85919491E8EAEB
:10049000F0E0E491E093020173CF1092B00010926B
:1004A000B1008091B00082608093B0008091B10073
:1004B00081608093B100E4E9F0E0E491F0E0EE0FB8
:1004C000FF1FE358FF4F85919491909318018093FB
:1004D0001701E8EAF0E0E491E093190151CF8FEFC2
:1004E000C816D104E104F104D1F1CCF162E17AE75C
:1004F00080E090E0A30192010E94740569017A01F5
:1005000081E0C81AD108E108F10811117BC094E01C
:1005100085B5887F892B85BD10E09E01220F331F92
:10052000D1010E94930528EE33E040E050E00E94A4
:100530005205113089F1123009F440C01111E9CE91
:10054000C7BC209308013093090140930A015093DE
:100550000B0180916E00826080936E00DACE94E091
:1005600049CF60E072E18AE790E09E010D2E000C19
:10057000440B550B0E94740569017A0181E0C81A89
:10058000D108E108F108113041F680918100887F9F
:10059000816080938100C1CFD0928900C092880091
:1005A0002093040130930501409306015093070105
:1005B00080916F00826080936F00ABCEC092B300D9
:1005C00020931A0130931B0140931C0150931D018D
:1005D000809170008260809370009BCE8DE00E94BD
:1005E0009B00C501B4010E94380160E08DE0A1CEFE
:1005F00093E08FEFC816D104E104F10411F00CF080
:1006000075CF86CF96E0F6CE64EF71E080E793E099
:100610000E946B016CE271E088EB91E00E946B013B
:1006200066E970E088EB91E00E946B0164EF71E095
:1006300080E793E00E946B0165E471E08EE393E054
:100640000E946B016FEA70E080E193E00E946B0111
:100650006DE770E084EE92E00E946B016DE770E060
:100660008AEB92E00E946B016AEF70E084EE92E008
:100670000E946B0165E471E080E090E00E94380127
:100680006AEF70E087EC91E00E946B0164EF71E02B
:100690008EE692E00E946B0165E471E08BE492E0EB
:1006A0000E946B016FEA70E08AE292E00E946B01A7
:1006B0006DE770E08BE092E00E946B016DE770E007
:1006C00082ED91E00E946B016AEF70E08BE092E0B6
:1006D0000E946B016EE571E080E090E00C943801BF
:1006E0001F920F920FB60F9211242F933F934F93A7
:1006F0005F936F937F938F939F93AF93BF93EF938A
:10070000FF9380911A0190911B01A0911C01B0915F
:100710001D01892B8A2B8B2BD1F190911901E0912E
:100720001701F091180180818927808380911A0137
:1007300090911B01A0911C01B0911D011816190682
:100740001A061B069CF480911A0190911B01A0913E
:100750001C01B0911D010197A109B10980931A01F3
:1007600090931B01A0931C01B0931D01FF91EF9189
:10077000BF91AF919F918F917F916F915F914F91B9
:100780003F912F910F900FBE0F901F901895809161
:1007900000010E94E700EACF1F920F920FB60F925E
:1007A00011242F933F938F939F93AF93BF93809187
:1007B0000F0190911001A0911101B091120130919F
:1007C0000E0123E0230F2D3758F50196A11DB11D11
:1007D00020930E0180930F0190931001A0931101BB
:1007E000B09312018091130190911401A091150111
:1007F000B09116010196A11DB11D80931301909334
:100800001401A0931501B0931601BF91AF919F9170
:100810008F913F912F910F900FBE0F901F901895C1
:1008200026E8230F0296A11DB11DD2CF789484B57E
:10083000826084BD84B5816084BD85B5826085BDDC
:1008400085B5816085BD80916E00816080936E006A
:10085000109281008091810082608093810080915C
:10086000810081608093810080918000816080930D
:1008700080008091B10084608093B1008091B000CD
:1008800081608093B00080917A00846080937A00C8
:1008900080917A00826080937A0080917A008160F2
:1008A00080937A0080917A00806880937A00109219
:1008B000C10083E00E947C008CE00E947C008DE0FF
:1008C0000E947C00C0E0D0E064EF71E088EB91E032
:1008D0000E946B0164EF71E088EB91E00E946B0174
:1008E00064EF71E088EB91E00E946B016EE571E0CE
:1008F0008DE591E00E946B0166E970E08BE092E08B
:100900000E946B0164EF71E088EB91E00E946B0143
:100910006EE571E08DE591E00E946B0166E970E0A3
:100920008BE092E00E946B016AE872E088EB91E054
:100930000E946B0164EF71E080E090E00E9438015A
:1009400064EF71E083E992E00E946B0164EF71E073
:1009500083E992E00E946B0164EF71E083E992E029
:100960000E946B016EE571E08AEB92E00E946B01E0
:1009700066E970E08BE092E00E946B0164EF71E049
:100980008FE991E00E946B016EE571E08DE591E0E9
:100990000E946B0166E970E08BE092E00E946B01BF
:1009A0006AE872E088EB91E00E946B0164EF71E00D
:1009B00080E090E00E9438010E9404036AEF70E03A
:1009C0008DE591E00E946B0164EF71E08FE991E0A9
:1009D0000E946B016EE571E08DE591E00E946B0174
:1009E0006DE770E088EB91E00E946B0164EF71E0CD
:1009F0008BE092E00E946B0167E771E088EB91E089
:100A00000E946B016DE770E08BE092E00E946B0149
:100A10006AE872E083E992E00E946B0164EF71E0A2
:100A200080E090E00E9438010E9404036AEF70E0C9
:100A30008DE591E00E946B0164EF71E08FE991E038
:100A40000E946B0167E771E08DE591E00E946B0108
:100A50006DE770E08BE092E00E946B0164EF71E063
:100A600088EB91E00E946B0167E771E08DE591E012
:100A70000E946B016DE770E08BE092E00E946B01D9
:100A80006AE872E088EB91E00E946B016AE872E02C
:100A900080E090E00E943801209709F415CF0E9471
:100AA000000012CFA1E21A2EAA1BBB1BFD010DC034
:100AB000AA1FBB1FEE1FFF1FA217B307E407F5070E
:100AC00020F0A21BB30BE40BF50B661F771F881FEA
:100AD000991F1A9469F760957095809590959B0180
:100AE000AC01BD01CF010895052E97FB1EF40094C3
:100AF0000E948B0557FD07D00E94520507FC03D0CA
:100B00004EF40C948B0550954095309521953F4FB0
:100B10004F4F5F4F089590958095709561957F4FE9
:100B20008F4F9F4F08950E949A05B7FF0895821B2B
:100B3000930B0895A29FB001B39FC001A39F700DB6
:100B4000811D1124911DB29F700D811D1124911DD5
:060B50000895F894FFCFA8
:020B5600FF009E
:00000001FF
