:100000000C945D000C9485000C9485000C94850084
:100010000C9485000C9485000C9485000C9485004C
:100020000C9485000C9485000C9485000C9485003C
:100030000C9485000C9485000C9485000C9485002C
:100040000C9473030C9485000C9441030C941B03D3
:100050000C9485000C9485000C9485000C9485000C
:100060000C9485000C94850000000008000201003B
:100070000003040700000000000000000000000072
:10008000250028002B0000000000240027002A0083
:10009000040404040404040402020202020203032E
:1000A0000303030301020408102040800102040836
:1000B0001020010204081020610411241FBECFEF9C
:1000C000D8E0DEBFCDBF13E0A0E0B1E0E4EBFCE0A0
:1000D00002C005900D92A035B107D9F723E0A0E545
:1000E000B3E001C01D92A63FB207E1F710E0CDE5F5
:1000F000D0E004C02197FE010E944306CC35D10711
:10010000C9F70E94BD030C9458060C94000090E0BF
:10011000FC01EC55FF4F249180579F4FFC018491C7
:10012000882399F090E0880F991FFC01EA57FF4F50
:10013000A591B491FC01E458FF4F859194918FB73C
:10014000F894EC91E22BEC938FBF0895FC01538D52
:10015000448D252F30E0842F90E0821B930B5417A1
:1001600010F0CF96089501970895FC01918D828D2E
:10017000981761F0A28DAE0FBF2FB11D5D968C91C7
:10018000928D9F5F9F73928F90E008958FEF9FEF06
:100190000895FC01918D828D981731F0828DE80FC2
:1001A000F11D858D90E008958FEF9FEF0895FC017C
:1001B000918D228D892F90E0805C9F4F821B910949
:1001C0008F7399270895FC01A48DA80FB92FB11D35
:1001D000A35ABF4F2C91848D90E001968F7399277D
:1001E000848FA689B7892C93A089B1898C9183705B
:1001F00080648C93938D848D981306C00288F38954
:10020000E02D80818F7D80830895EF92FF920F9380
:100210001F93CF93DF93EC0181E0888F9B8D8C8DB2
:1002200098131AC0E889F989808185FF15C09FB7A6
:10023000F894EE89FF896083E889F9898081837069
:10024000806480839FBF81E090E0DF91CF911F9118
:100250000F91FF90EF900895F62E0B8D10E00F5F39
:100260001F4F0F731127E02E8C8D8E110CC00FB60F
:1002700007FCFACFE889F989808185FFF5CFCE01A7
:100280000E94E300F1CFEB8DEC0FFD2FF11DE35A3F
:10029000FF4FF0829FB7F8940B8FEA89FB8980812A
:1002A0008062CFCFCF93DF93EC01888D8823B9F0A4
:1002B000AA89BB89E889F9898C9185FD03C0808171
:1002C00086FD0DC00FB607FCF7CF8C9185FFF2CFEE
:1002D000808185FFEDCFCE010E94E300E9CFDF9161
:1002E000CF91089589E593E00E94D70021E0892B02
:1002F00009F420E0822F089580E090E0892B29F016
:100300000E94720181110C9400000895AF92BF9277
:10031000CF92DF92EF92FF920F931F93CF93DF93D1
:100320006C017B018B01040F151FEB015E01AE1800
:10033000BF08C017D10759F06991D601ED91FC9122
:100340000190F081E02DC6010995892B79F7C5014F
:10035000DF91CF911F910F91FF90EF90DF90CF90A1
:10036000BF90AF90089590E0FC01E859FF4F2491B1
:10037000FC01EC55FF4F3491FC01E057FF4FE49135
:10038000EE23C9F0222339F0233001F1A8F4213003
:1003900019F1223029F1F0E0EE0FFF1FE458FF4F72
:1003A000A591B4918FB7F894EC91611126C0309566
:1003B0003E233C938FBF08952730A9F02830C9F021
:1003C000243049F7809180008F7D03C080918000A8
:1003D0008F7780938000DFCF84B58F7784BDDBCFAC
:1003E00084B58F7DFBCF8091B0008F778093B00074
:1003F000D2CF8091B0008F7DF9CF3E2BDACF8F9294
:100400009F92AF92BF92CF92DF92EF92FF920F93A3
:100410001F93CF93DF934B015C0169017A0161E087
:1004200085E00E94B301A5019401C701B6010E94B5
:10043000BF0528EE33E040E050E00E94E30569018B
:100440007A0160E271EA87E090E0A50194010E94E0
:10045000E3058901220F331F220F331FE90125977E
:10046000812C912C54018C149D04AE04BF04D4F44F
:1004700061E083E00E94B3010230110518F0CE0163
:100480000197F1F760E083E00E94B30102301105AB
:1004900018F0CE010197F1F78FEF881A980AA80A91
:1004A000B80AE1CF60E085E0DF91CF911F910F9115
:1004B000FF90EF90DF90CF90BF90AF909F908F9084
:1004C0000C94B3013FB7F894809155039091560373
:1004D000A0915703B091580326B5A89B05C02F3FA4
:1004E00019F00196A11DB11D3FBFBA2FA92F982F5A
:1004F0008827BC01CD01620F711D811D911D42E055
:10050000660F771F881F991F4A95D1F708958F921C
:100510009F92AF92BF92CF92DF92EF92FF926B01C8
:100520007C010E9462024B015C01C114D104E10410
:10053000F104B9F00E946202681979098A099B09DD
:10054000683E73408105910580F321E0C21AD1080D
:10055000E108F10888EE880E83E0981EA11CB11C0A
:10056000E4CFFF90EF90DF90CF90BF90AF909F903F
:100570008F90089542E050E06AE273E089E593E0ED
:100580000C948601AF92BF92CF92DF92EF92FF92CE
:100590000F931F93CF93DF934EE050E06DE273E033
:1005A00089E593E00E9486010E94BA02CEE8D2E07B
:1005B00002EF11E088EEA82E83E0B82E69917991C0
:1005C000C5010E94CF056B01770FEE08FF08F80107
:1005D000619171918F01072E000C880B990BA70177
:1005E00096010E94FF01C701B6010E94C60426E6DB
:1005F00036E646EA5FE30E942A050E948E04072E33
:10060000000C880B990B0E948702A701960160E0FD
:1006100070E0CB010E94FF01F3E0CA32DF0771F600
:10062000DF91CF911F910F91FF90EF90DF90CF90CE
:10063000BF90AF9008951F920F920FB60F921124A2
:100640002F933F934F935F936F937F938F939F93DA
:10065000AF93BF93EF93FF9389E593E00E94E3008C
:10066000FF91EF91BF91AF919F918F917F916F918A
:100670005F914F913F912F910F900FBE0F901F9060
:1006800018951F920F920FB60F9211242F938F93EC
:100690009F93EF93FF93E0916903F0916A03808148
:1006A000E0916F03F091700382FD1BC090818091F7
:1006B00072038F5F8F7320917303821741F0E09173
:1006C0007203F0E0E75AFC4F958F80937203FF911D
:1006D000EF919F918F912F910F900FBE0F901F90D0
:1006E00018958081F4CF1F920F920FB60F921124AC
:1006F0002F933F938F939F93AF93BF938091510319
:1007000090915203A0915303B09154033091500340
:1007100023E0230F2D3758F50196A11DB11D20931D
:1007200050038093510390935203A0935303B093CB
:1007300054038091550390915603A0915703B091B3
:1007400058030196A11DB11D809355039093560344
:10075000A0935703B0935803BF91AF919F918F918E
:100760003F912F910F900FBE0F901F90189526E884
:10077000230F0296A11DB11DD2CF789484B582605B
:1007800084BD84B5816084BD85B5826085BD85B535
:10079000816085BD80916E00816080936E001092B3
:1007A000810080918100826080938100809181002E
:1007B00081608093810080918000816080938000BF
:1007C0008091B10084608093B1008091B00081601D
:1007D0008093B00080917A00846080937A00809149
:1007E0007A00826080937A0080917A0081608093A1
:1007F0007A0080917A00806880937A001092C1001C
:1008000083E00E94870085E00E94870082EFE82E47
:1008100081E0F82E98EEC92E93E0D92E20E0A22E8A
:1008200020E0B22E0E94C2020E94C20243E150E0C8
:100830006CE373E089E593E00E9486010E94BA02AE
:10084000C2E8D1E002E111E069917991C6010E940C
:10085000CF052B01770F66087708F8016191719138
:100860008F01072E000C880B990BA30192010E94A7
:10087000FF01C301B2010E94C60426E636E646EA3D
:100880005FE30E942A050E948E04072E000C880B4D
:10089000990B0E948702A301920160E070E0CB01F6
:1008A0000E94FF01EC16FD0679F6A114B10409F4CB
:1008B000B9CF0E947201882309F4B4CF0E940000CE
:1008C000B1CFE9E5F3E01382128288EE93E0A0E075
:1008D000B0E084839583A683B78384E091E091831D
:1008E000808385EC90E09587848784EC90E09787FF
:1008F000868780EC90E0918B808B81EC90E0938BED
:10090000828B82EC90E0958B848B86EC90E0978BC9
:10091000868B118E128E138E148E08950E9495046C
:100920006894B1110C94240508950E94090588F07B
:100930009F5798F0B92F9927B751B0F0E1F0660FA3
:10094000771F881F991F1AF0BA95C9F714C0B130E4
:1009500091F00E942305B1E008950C942305672FC0
:10096000782F8827B85F39F0B93FCCF38695779513
:100970006795B395D9F73EF49095809570956195FC
:100980007F4F8F4F9F4F0895E89409C097FB3EF427
:1009900090958095709561957F4F8F4F9F4F9923CC
:1009A000A9F0F92F96E9BB279395F695879577954A
:1009B0006795B795F111F8CFFAF4BB0F11F460FF0A
:1009C0001BC06F5F7F4F8F4F9F4F16C0882311F062
:1009D00096E911C0772321F09EE8872F762F05C076
:1009E000662371F096E8862F70E060E02AF09A9511
:1009F000660F771F881FDAF7880F9695879597F906
:100A0000089557FD9058440F551F59F05F3F71F0FE
:100A10004795880F97FB991F61F09F3F79F0879565
:100A20000895121613061406551FF2CF4695F1DFEE
:100A300008C0161617061806991FF1CF869571057E
:100A4000610508940895E894BB2766277727CB01B2
:100A500097F908950E943D050C94AE050E94A005EB
:100A600038F00E94A70520F0952311F00C9497050B
:100A70000C949D0511240C9424050E94010570F32B
:100A8000959FC1F3950F50E0551F629FF001729F33
:100A9000BB27F00DB11D639FAA27F00DB11DAA1F42
:100AA000649F6627B00DA11D661F829F2227B00D8F
:100AB000A11D621F739FB00DA11D621F839FA00D1A
:100AC000611D221F749F3327A00D611D231F849F6A
:100AD000600D211D822F762F6A2F11249F575040C1
:100AE0009AF0F1F088234AF0EE0FFF1FBB1F661F3C
:100AF000771F881F91505040A9F79E3F510580F005
:100B00000C9497050C9424055F3FE4F3983ED4F3CE
:100B1000869577956795B795F795E7959F5FC1F7A8
:100B2000FE2B880F911D9695879597F9089597F953
:100B30009F6780E870E060E008959FEF80EC089583
:100B400000240A94161617061806090608950024AC
:100B50000A9412161306140605060895092E039426
:100B6000000C11F4882352F0BB0F40F4BF2B11F49A
:100B700060FF04C06F5F7F4F8F4F9F4F0895DB0171
:100B80008F939F930E940206BF91AF91A29F800D09
:100B9000911DA39F900DB29F900D1124089597FB76
:100BA000072E16F4009407D077FD09D00E940D0699
:100BB00007FC05D03EF4909581959F4F0895709560
:100BC00061957F4F0895052E97FB1EF400940E94B7
:100BD000FA0557FD07D00E94210607FC03D04EF40A
:100BE0000C94FA0550954095309521953F4F4F4F05
:100BF0005F4F089590958095709561957F4F8F4FC9
:100C00009F4F08950E944906A59F900DB49F900D97
:100C1000A49F800D911D11240895AA1BBB1B51E1B7
:100C200007C0AA1FBB1FA617B70710F0A61BB70B5C
:100C3000881F991F5A95A9F780959095BC01CD0101
:100C40000895A1E21A2EAA1BBB1BFD010DC0AA1F0D
:100C5000BB1FEE1FFF1FA217B307E407F50720F025
:100C6000A21BB30BE40BF50B661F771F881F991FA0
:100C70001A9469F760957095809590959B01AC01E9
:100C8000BD01CF010895EE0FFF1F0590F491E02DF7
:100C90000994A29FB001B39FC001A39F700D811D55
:100CA0001124911DB29F700D811D1124911D089575
:040CB000F894FFCFE6
:100CB4000000000005018601A6005201D700B5001E
:100CC400C90006010B02DC00B801E900D2010000F2
:100CD400000006010B02DC00B801E900D2010000AB
:100CE4000000AF005D01930026019C003701000065
:100CF4000000AF005D01930026019C003701000055
:100D04000000370115012601150137013701D00014
:100D1400C4001501060172015D01A500D201B801EC
:100D24009F013701F700E900DC00D000000000005B
:100D340000000C000C000C000C000C000C00060061
:100D440003000C000C000C000C000C000C0006004E
:100D540003000C000C000C000C000C000C0006003E
:100D640003000C000C000C000C000C000C0006002E
:100D7400060012001200120006000600060006001B
:100D840006000600120012001200120012001200E7
:100D94000A000A000A000A000A000A00030003000D
:100DA40003004D0A4D0A00004D0A00002D084D0AAB
:100DB4000000400C000000000000200600000000BD
:100DC40000002D0800000000200600000000270598
:100DD40000000000E0060000B80700004907E00634
:100DE400000020064D0A400CC00D0000EA0A400C29
:100DF40000004D0A00002D082D09B807000000006E
:100E04002D08000000002006000000002705000057
:100E14000000E0060000B80700004907E0060000F3
:100E240020064D0A400CC00D0000EA0A400C0000E8
:100E34004D0A00002D082D09B807000000000C0021
:100E44000C000C000C000C000C000C000C000C003E
:100E54000C000C000C000C000C000C000C000C002E
:100E64000C000C000C000C000C000C000C000C001E
:100E74000C000C000C000C000C000C000C00090011
:100E8400090009000C000C000C000C000C000C0004
:100E94000C000C000C000C000C000C000C000C00EE
:100EA4000C000C000C000C000C000C000C000C00DE
:100EB4000C000C000C000C000C000C0009000900D4
:100EC40009000C000C000C000C000C000C000C00C1
:100ED4000C000C000C000C000C000D0A0020274D27
:100EE4006172696F205468656D6527002027556E0F
:100EF400646572776F726C64205468656D65270051
:00000001FF
