:100000000C94AE050C94D6050C94D6050C94D6052C
:100010000C94D6050C94D6050C94D6050C94730656
:100020000C94D6050C94D6050C94D6050C94D605E4
:100030000C94D6050C94D6050C94D6050C94D605D4
:100040000C94CF060C94D6050C94D6050C94D605CA
:100050000C94D6050C94D6050C94D6050C94D605B4
:100060000C94D6050C94D60500000008000201008F
:100070000003040700000000000000000200000070
:1000800000250028002B0000000000240027002A83
:100090000004040404040404040202020202020331
:1000A000030303030301020408102040800102043B
:1000B0000810200102040810205200080052000815
:1000C00000A5000800520008005200080093000834
:1000D0000052000800520008008300080052000887
:1000E0000052000800750008005200080052000885
:1000F000007B00080083000800520008005200083E
:1001000000A50008005200080052000800930008F3
:100110000052000800520008008300080052000846
:1001200000520008007500FEFF520008005200084F
:1001300000A50008005200080052000800930008C3
:100140000052000800520008008300080052000816
:100150000052000800750008005200080052000814
:10016000007B0008008300080052000800520008CD
:1001700000A5000800520008005200080093000883
:1001800000520008005200080083000800520008D6
:1001900000520008007500FEFF52000800520008DF
:1001A00000A5000800520008005200080093000853
:1001B00000520008005200080083000800520008A6
:1001C00000520008007500080052000800520008A4
:1001D000007B00080083000800520008005200085D
:1001E00000A5000800520008005200080093000813
:1001F0000052000800520008008300080052000866
:1002000000520008007500FEFF520008005200086E
:1002100000A50008005200080052000800930008E2
:100220000052000800520008008300080052000835
:100230000052000800750008005200080052000833
:10024000007B0008008300080052000800520008EC
:1002500000A50008005200080052000800930008A2
:10026000005200080052000800B900F0FF9300F0AF
:10027000FF7B00F0FFDC00F0FFB900F0FF7B00F037
:10028000FF9300F0FFB900F0FFDC00F0FFB900F0D1
:10029000FF9300F0FF7B00F0FF52000800520008BF
:1002A00000A5000800520008005200080093000852
:1002B00000520008005200080083000800520008A5
:1002C00000520008007500080052000800520008A3
:1002D000007B00080083000800520008005200085C
:1002E00000A5000800520008005200080093000812
:1002F0000052000800520008008300080052000865
:1003000000520008007500FEFF520008005200086D
:1003100000A50008005200080052000800930008E1
:100320000052000800520008008300080052000834
:100330000052000800750008005200080052000832
:10034000007B0008008300080052000800520008EB
:1003500000A50008005200080052000800930008A1
:10036000005200080052000800F700F0FFC400F03F
:10037000FFA500F0FFC400F0FFF700F0FF4A01F016
:10038000FFC400F0FFF700F0FF4A01F0FFF700F0B4
:10039000FF8801F0FFEE01F0FF6E0008006E00081C
:1003A00000DC0008006E0008006E000800C40008B1
:1003B000006E0008006E000800AF0008006E000824
:1003C000006E0008009C0008006E0008006E000827
:1003D00000A5000800AF0008006E0008006E0008CD
:1003E00000DC0008006E0008006E000800C4000871
:1003F000006E0008006E000800AF0008006E0008E4
:10040000006E0008009C00FEFF6E0008006E0008F1
:1004100000DC0008006E0008006E000800C4000840
:10042000006E0008006E000800AF0008006E0008B3
:10043000006E0008009C0008006E0008006E0008B6
:1004400000A5000800AF0008006E0008006E00085C
:1004500000DC0008006E0008006E000800C4000800
:10046000006E0008006E000800DC00F0FFAF00F036
:10047000FF9300F0FFDC00F0FFAF00F0FF9300F00F
:10048000FF0601F0FFDC00F0FFAF00F0FFDC00F042
:10049000FFAF00F0FF9300F0FF5200080052000889
:1004A00000A5000800520008005200080093000850
:1004B00000520008005200080083000800520008A3
:1004C00000520008007500080052000800520008A1
:1004D000007B00080083000800520008005200085A
:1004E00000A5000800520008005200080093000810
:1004F0000052000800520008008300080052000863
:1005000000520008007500FEFF520008005200086B
:1005100000A50008005200080052000800930008DF
:100520000052000800520008008300080052000832
:100530000052000800750008005200080052000830
:10054000007B0008008300080052000800520008E9
:1005500000A500080052000800520008009300089F
:1005600000520008005200080083000800520008F2
:1005700000520008007500FEFF8B0008008B000889
:1005800000150108008B0008008B000800F7000828
:10059000008B0008008B000800DC0008008B0008BE
:1005A000008B000800C40008008B0008008B0008C6
:1005B00000D0000800DC0008007B0008007B000879
:1005C00000F70008007B0008007B000800DC000842
:1005D000007B0008007B000800C40008007B0008C6
:1005E000007B000800AF00FEFF5200080052000828
:1005F00000A50008005200080052000800930008FF
:100600000052000800520008008300080052000851
:10061000005200080075000800520008005200084F
:10062000007B000800830008005200080052000808
:1006300000A50008005200080052000800930008BE
:10064000005200080052000800F700F0FFC400F05C
:10065000FFA500F0FFC400F0FFF700F0FF4A01F033
:10066000FFC400F0FFF700F0FF4A01F0FFF700F0D1
:10067000FF8801F0FFEE01F0FF5200080052000871
:1006800000A500080052000800520008009300086E
:1006900000520008005200080083000800520008C1
:1006A00000520008007500080052000800520008BF
:1006B000007B000800830008005200080052000878
:1006C00000A500080052000800520008009300082E
:1006D0000052000800520008008300080052000881
:1006E00000520008007500FEFF520008005200088A
:1006F00000A50008005200080052000800930008FE
:100700000052000800520008008300080052000850
:10071000005200080075000800520008005200084E
:10072000007B000800830008005200080052000807
:1007300000A50008005200080052000800930008BD
:10074000005200080052000800B900F0FF9C00F0C1
:10075000FF7B00F0FFB900F0FF9C00F0FF7B00F092
:10076000FFC400F0FF9300F0FF7B00F0FF3701F0C3
:10077000FF9C00F0FF7B00F0FF52000800520008D1
:1007800000A500080052000800520008009300086D
:1007900000520008005200080083000800520008C0
:1007A00000520008007500080052000800520008BE
:1007B000007B000800830008005200080052000877
:1007C00000A500080052000800520008009300082D
:1007D0000052000800520008008300080052000880
:1007E00000520008007500FEFF5200080052000889
:1007F00000A50008005200080052000800930008FD
:10080000005200080052000800830008005200084F
:10081000005200080075000800520008005200084D
:10082000007B000800830008005200080052000806
:1008300000A50008005200080052000800930008BC
:100840000052000800520008004A01F0FFF700F0D3
:10085000FFC400F0FF8801F0FF4A01F0FFC400F080
:10086000FFF700F0FF2601F0FF4A01F0FF8801F0DA
:10087000FF4A01F0FFC400F0FF52000800520008D8
:1008800000A500080052000800520008009300086C
:1008900000520008005200080083000800520008BF
:1008A00000520008007500080052000800520008BD
:1008B000007B000800830008005200080052000876
:1008C00000A500080052000800520008009300082C
:1008D000005200080052000800830008005200087F
:1008E00000520008007500FEFF6E0008006E000850
:1008F00000DC0008006E0008006E000800C400085C
:10090000006E0008006E000800AF0008006E0008CE
:10091000006E0008009C0008006E0008006E0008D1
:1009200000A5000800AF0008006E0008006E000877
:1009300000DC0008006E0008006E000800C400081B
:10094000006E0008006E000800DC00F0FFAF00F051
:10095000FF9300F0FFDC00F0FFAF00F0FF9300F02A
:10096000FF0601F0FFDC00F0FFAF00F0FFDC00F05D
:10097000FFAF00F0FF9300F0FF52000800520008A4
:1009800000A500080052000800520008009300086B
:1009900000520008005200080083000800520008BE
:1009A00000520008007500080052000800520008BC
:1009B000007B000800830008005200080052000875
:1009C00000A500080052000800520008009300082B
:1009D000005200080052000800830008005200087E
:1009E00000520008007500FEFF5200080052000887
:1009F00000A50008005200080052000800930008FB
:100A0000005200080052000800830008005200084D
:100A1000005200080075000800520008005200084B
:100A2000007B000800830008005200080052000804
:100A300000A50008005200080052000800930008BA
:100A4000005200080052000800830008005200080D
:100A500000520008007500FEFF5200080052000816
:100A600000A500080052000800520008009300088A
:100A700000520008005200080083000800520008DD
:100A800000520008007500080052000800520008DB
:100A9000007B000800830008005200080052000894
:100AA00000A500080052000800520008009300084A
:100AB000005200080052000800830008005200089D
:100AC00000520008007500FEFF52000800520008A6
:100AD00000A500080052000800520008009300081A
:100AE000005200080052000800830008005200086D
:100AF000005200080075000800520008005200086B
:100B0000007B000800830008005200080052000823
:100B100000A50008005200080052000800930008D9
:100B2000005200080052000800F700F0FFC400F077
:100B3000FFA500F0FF7B00F0FFA500F0FFC400F070
:100B4000FF0601F0FFF700F0FFC400F0FFF700F030
:100B5000FFC400F0FFA500F0FF00FE0911241FBE36
:100B6000CFEFD8E0DEBFCDBF11E0A0E0B1E0E2E81A
:100B7000F7E102C005900D92A230B107D9F721E04C
:100B8000A2E0B1E001C01D92A032B207E1F715E08A
:100B9000CEEAD5E004C02197FE010E94AA0BCD3A0F
:100BA000D107C9F70E9419070C94BF0B0C940000E1
:100BB0009091000189130DC0ECE7F0E0E4919FEF04
:100BC00090930001E13009F431C068F1E23009F49A
:100BD00033C090E0FC01E859FF4F2491FC01EB5534
:100BE000FF4F3491FC01EF56FF4FE491EE23D1F01B
:100BF000222351F0233009F43AC078F5213009F46A
:100C00003CC0223009F43DC0F0E0EE0FFF1FE35876
:100C1000FF4FA591B4918FB7F894EC9130953E2396
:100C20003C938FBF089510926E00D3CF90916F00C8
:100C30009D7F90936F00CDCF909170009D7F90939A
:100C4000700091E09093B0009091B100987F946013
:100C50009093B1001092B300BCCF2730A9F0283098
:100C6000C9F0243089F6809180008F7D03C0809187
:100C700080008F7780938000C7CF84B58F7784BD45
:100C8000C3CF84B58F7DFBCF8091B0008F778093E9
:100C9000B000BACF8091B0008F7DF9CF3FB7F89404
:100CA0008091070190910801A0910901B0910A017A
:100CB00026B5A89B05C02F3F19F00196A11DB11DB7
:100CC0003FBFBA2FA92F982F8827BC01CD01620FF3
:100CD000711D811D911D42E0660F771F881F991FAE
:100CE0004A95D1F708951F920F920FB60F921124D3
:100CF0002F933F934F935F936F937F938F939F9324
:100D0000AF93BF93EF93FF938091100190911101E6
:100D1000A0911201B0911301892B8A2B8B2BD1F159
:100D200090910B01E0910C01F0910D0180818927D8
:100D300080838091100190911101A0911201B091D6
:100D40001301181619061A061B069CF4809110014F
:100D500090911101A0911201B09113010197A10985
:100D6000B1098093100190931101A0931201B093E7
:100D70001301FF91EF91BF91AF919F918F917F915F
:100D80006F915F914F913F912F910F900FBE0F90F8
:100D90001F901895809100010E94D805EACF1F92FC
:100DA0000F920FB60F9211242F933F938F939F931F
:100DB000AF93BF938091030190910401A09105012D
:100DC000B09106013091020123E0230F2D3758F531
:100DD0000196A11DB11D2093020180930301909300
:100DE0000401A0930501B093060180910701909141
:100DF0000801A0910901B0910A010196A11DB11D40
:100E00008093070190930801A0930901B0930A0110
:100E1000BF91AF919F918F913F912F910F900FBEF6
:100E20000F901F90189526E8230F0296A11DB11D63
:100E3000D2CFCF93DF9300D000D01F92CDB7DEB7D3
:100E4000789484B5826084BD84B5816084BD85B5A5
:100E5000826085BD85B5816085BD80916E008160B1
:100E600080936E0010928100809181008260809357
:100E70008100809181008160809381008091800059
:100E80008160809380008091B10084608093B10084
:100E90008091B00081608093B00080917A0084607E
:100EA00080937A0080917A00826080937A008091AA
:100EB0007A00816080937A0080917A0080688093C4
:100EC0007A001092C10009EB10E0F80132966591AA
:100ED0007491161617060CF046C080911E01909171
:100EE0001F010E94360B70931D0160931C016091DD
:100EF0001C0170911D01F801259034908091000132
:100F0000833009F04CC0ECE7F0E0F491FD83FD8103
:100F1000F7FF95C0C0901C01D0901D010D2C000C56
:100F2000EE08FF080E944E064B015C01C114D1047B
:100F3000E104F10409F450C20E944E0668197909CF
:100F40008A099B09683E73408105910578F321E089
:100F5000C21AD108E108F10888EE880E83E0981ED5
:100F6000A11CB11CE3CF6115710509F4C0CF7195C7
:100F70006195710980911E0190911F010E94360BAD
:100F8000072E000C880B990B0E943D0A20E030E0F0
:100F900040EC5FE30E94A10A0E94050AA4CF8F3FA4
:100FA00009F0B8CF23E020930001ECE7F0E0F491E2
:100FB000FD83FF3F09F4AECFF13009F41FC130F1DA
:100FC000F23009F0A4CF1092B0001092B1008091DD
:100FD000B00082608093B0008091B1008160809306
:100FE000B100E4E9F0E08491E82FF0E0EE0FFF1F9C
:100FF000E358FF4F8591949190930D0180930C01DC
:10100000E8EAF0E0849180930B0119C014BC15BC90
:1010100084B5826084BD85B5816085BDE4E9F0E07A
:101020008491E82FF0E0EE0FFF1FE358FF4F85910A
:101030009491E8EAF0E0849180930F011D82E8EA40
:10104000F0E04491E4E9F0E08491882399F090E0A5
:10105000880F991FFC01E957FF4FA591B491FC013E
:10106000E358FF4F259134918FB7F8949C91492B09
:101070004C938FBF072E000C880B990B0E943D0AE2
:1010800026E636E646E65FE30E94A10A0E940C0AC5
:101090002B013C014101B12CA12C60E072E18AE7F7
:1010A00090E0A50191010E946C0B29833A834B8348
:1010B0005C8369017A01F1E0CF1AD108E108F108F7
:1010C0008D818D7F09F030C12FEFC216D104E1046C
:1010D000F10409F00CF4FDC060E472E48FE090E0EC
:1010E000A50191010E946C0B69017A0181E0C81A87
:1010F000D108E108F1089D81923009F09EC082E09C
:10110000EFEFCE16D104E104F10409F00CF46FC046
:1011100060E970ED83E090E0A50191010E946C0B05
:1011200069017A01F1E0CF1AD108E108F10883E002
:101130002FEFC216D104E104F10409F00CF457C0FA
:1011400068E478EE81E090E0A50191010E946C0BCB
:1011500069017A0181E0C81AD108E108F10884E048
:101160009FEFC916D104E104F10409F00CF43FC06B
:1011700064E274EF80E090E0A50194010E946C0BA2
:1011800069017A01F1E0CF1AD108E108F10885E0A0
:101190009FEFC916D104E104F10449F140F162E185
:1011A0007AE780E090E0A50194010E946C0B690150
:1011B0007A01E1E0CE1AD108E108F10886E0FFEFFC
:1011C000CF16D104E104F10491F088F0C980DA80EF
:1011D000EB80FC808AE0F594E794D794C7948A95D5
:1011E000D1F721E0C21AD108E108F10887E0909117
:1011F000B100987F892B8093B10073C0109280005A
:10120000109281008091810088608093810080919C
:101210008100816080938100E4E9F0E08491E82F0F
:10122000F0E0EE0FFF1FE358FF4F85919491E8EA3D
:10123000F0E0849180930E0102CF8FEFC816D104A5
:10124000E104F10409F00CF46DC068E478EE81E08B
:1012500090E0A50191010E946C0B69017A0191E077
:10126000C91AD108E108F108ED8184E0E11190CFBD
:1012700083E02FEFC216D104E104F10471F16CF1A7
:1012800062E17AE780E090E0A50194010E946C0B96
:1012900069017A0181E0C81AD108E108F10884E007
:1012A0009FEFC916D104E104F104B9F0B0F0C98090
:1012B000DA80EB80FC809AE0F594E794D794C794A9
:1012C0009A95D1F7F1E0CF1AD108E108F10885E04D
:1012D00004C081E0ED81E1118ACF95B5987F892B1B
:1012E00085BD2FEF3FEFA901411451046104710442
:1012F00009F042C0FD81F13009F44CC0F23009F42C
:101300005BC0F11107CEC7BC2093180130931901BF
:1013100040931A0150931B0180916E00826080936C
:101320006E00F8CD82E0D6CF91E0C114D104F1E097
:10133000EF06F10484F068E478EE81E090E0A50126
:1013400091010E946C0B69017A0181E0C81AD108F1
:10135000E108F10893E0ED81E13019F68091810018
:10136000887F892B809381002FEF3FEFA9014114E3
:1013700051046104710471F0D101AA0FBB1FA301D4
:1013800092010E948B0B28EE33E040E050E00E9477
:101390004A0BB0CFD0928900C092880020931401EC
:1013A00030931501409316015093170180916F00FF
:1013B000826080936F00AECDC092B3002093100185
:1013C00030931101409312015093130180917000EA
:1013D0008260809370009ECD83E00E94D8050C5FF0
:1013E0001F4F89E59BE08017910709F06ECDE0E083
:1013F000F0E0EF2BE1F30E940000F9CF8AE294E0E5
:1014000090931F0180931E0108950E940C0A689416
:10141000B1110C949B0A08950E94800A88F09F578E
:1014200098F0B92F9927B751B0F0E1F0660F771F08
:10143000881F991F1AF0BA95C9F714C0B13091F0FE
:101440000E949A0AB1E008950C949A0A672F782FA7
:101450008827B85F39F0B93FCCF3869577956795C3
:10146000B395D9F73EF490958095709561957F4F2F
:101470008F4F9F4F0895E89409C097FB3EF49095D5
:101480008095709561957F4F8F4F9F4F9923A9F05D
:10149000F92F96E9BB279395F695879577956795EC
:1014A000B795F111F8CFFAF4BB0F11F460FF1BC030
:1014B0006F5F7F4F8F4F9F4F16C0882311F096E9C3
:1014C00011C0772321F09EE8872F762F05C0662371
:1014D00071F096E8862F70E060E02AF09A95660F2A
:1014E000771F881FDAF7880F9695879597F90895E3
:1014F00057FD9058440F551F59F05F3F71F04795C5
:10150000880F97FB991F61F09F3F79F087950895A9
:10151000121613061406551FF2CF4695F1DF08C0C8
:10152000161617061806991FF1CF869571056105E5
:1015300008940895E894BB2766277727CB0197F98D
:1015400008950E94B40A0C94250B0E94170B38F0E2
:101550000E941E0B20F0952311F00C940E0B0C949E
:10156000140B11240C949B0A0E94780A70F3959F27
:10157000C1F3950F50E0551F629FF001729FBB278A
:10158000F00DB11D639FAA27F00DB11DAA1F649F26
:101590006627B00DA11D661F829F2227B00DA11DD9
:1015A000621F739FB00DA11D621F839FA00D611D5F
:1015B000221F749F3327A00D611D231F849F600D80
:1015C000211D822F762F6A2F11249F5750409AF0A9
:1015D000F1F088234AF0EE0FFF1FBB1F661F771F35
:1015E000881F91505040A9F79E3F510580F00C9400
:1015F0000E0B0C949B0A5F3FE4F3983ED4F3869560
:1016000077956795B795F795E7959F5FC1F7FE2B9F
:10161000880F911D9695879597F9089597F99F677B
:1016200080E870E060E008959FEF80EC089500246A
:101630000A941616170618060906089500240A9437
:1016400012161306140605060895092E0394000CBD
:1016500011F4882352F0BB0F40F4BF2B11F460FF4C
:1016600004C06F5F7F4F8F4F9F4F089597FB072EEA
:1016700016F4009407D077FD09D00E94960B07FC62
:1016800005D03EF4909581959F4F08957095619592
:101690007F4F0895A1E21A2EAA1BBB1BFD010DC0AE
:1016A000AA1FBB1FEE1FFF1FA217B307E407F50712
:1016B00020F0A21BB30BE40BF50B661F771F881FEE
:1016C000991F1A9469F760957095809590959B0184
:1016D000AC01BD01CF010895052E97FB1EF40094C7
:1016E0000E94830B57FD07D00E944A0B07FC03D0D2
:1016F0004EF40C94830B50954095309521953F4FB7
:101700004F4F5F4F089590958095709561957F4FED
:101710008F4F9F4F08950E94B00BA59F900DB49FCF
:10172000900DA49F800D911D11240895AA1BBB1B31
:1017300051E107C0AA1FBB1FA617B70710F0A61BD1
:10174000B70B881F991F5A95A9F780959095BC01F2
:10175000CD010895EE0FFF1F0590F491E02D09943F
:10176000A29FB001B39FC001A39F700D811D1124E2
:10177000911DB29F700D811D1124911D0895F89443
:02178000FFCF99
:02178200FF0066
:00000001FF
